:020000040800F2
:100000009835002081020008812900083521000868
:10001000B9280008391D0008F53F0008000000005D
:10002000000000000000000000000000E9010008DE
:100030003D1D0008000000002D020008AD860008EC
:100040009B0200089B0200089B0200089B0200081C
:100050009B0200089B0200089B0200089B0200080C
:100060001D1E00084D1E00089B0200089B02000890
:100070009B0200089B0200089B0200089B020008EC
:100080009B0200089B0200089B0200089B020008DC
:100090009B0200089B0200089B0200087D1E0008CE
:1000A0009B0200089B0200089B0200089B020008BC
:1000B000FD3600089B020008153700089B02000867
:1000C0009B0200089B0200089B0200089B0200089C
:1000D0009B020008AD3C00089B020008C93C0008D8
:1000E0009B0200089B0200089B02000800F002F837
:1000F00000F06AF80AA090E8000C82448344AAF158
:100100000107DA4501D100F05FF8AFF2090EBAE855
:100110000F0013F0010F18BFFB1A43F0010318473B
:10012000C4B70000E4B700000A444FF0000C10F818
:10013000013B13F0070408BF10F8014B1D1108BF65
:1001400010F8015B641E05D010F8016B641E01F805
:10015000016BF9D113F0080F1EBF10F8014BAD1C55
:100160000C1B09D16D1E58BF01F801CBFAD505E073
:1001700014F8016B01F8016B6D1EF9D59142D6D3CD
:10018000704700000023002400250026103A28BFF5
:1001900078C1FBD8520728BF30C148BF0B607047F9
:1001A00066290AF00080642900F0F880002070477A
:1001B0001FB500F0B7FD04000020002108F0D8FEB4
:1001C000E0601FBD10B510BD00F0DCFE1146FFF76A
:1001D000EFFF05F0E9FC00F0FAFE03B4FFF7F2FFD1
:1001E00003BC03F0C0FF0000224B19680868B0E8A8
:1001F000F00F80F30988BFF36F8F4FF0000080F39A
:1002000011884EF00D0E704700000000064800688F
:10021000006880F3088862B661B6BFF34F8FBFF302
:100220006F8F00DF00BF00BF08ED00E0EFF3098033
:10023000BFF36F8F0F4B1A6820E9F00F106008B5FD
:100240004FF0BF0080F31188BFF34F8FBFF36F8F64
:1002500008F026F94FF0000080F31188BDE808404F
:1002600019680868B0E8F00F80F30988BFF36F8F52
:10027000704700BF78020020EFF305807047000050
:100280000948804709480047FEE7FEE7FEE7FEE72A
:10029000FEE7FEE7FEE7FEE7FEE7FEE70448054966
:1002A000054A064B704700005D340008ED00000869
:1002B000982F002098350020983100209831002098
:1002C000704710B54C1084EA530404D54042C1F184
:1002D000000138BF491E1B4204D55242C3F100033E
:1002E00038BF5B1E00F0AFF914F0804F04D04042DD
:1002F000C1F1000138BF491E14F0004F04D0524232
:10030000C3F1000338BF5B1E10BD00000FB40449E9
:1003100010B503AA029800F09FFC10BC5DF814FB16
:10032000600000200FB41CB5074B06AA7B44694649
:100330000090059800F077FC0020694600F086FCEC
:100340001CBC5DF814FB00001D09000070B50446DC
:1003500085690068C10601D5302600E02026C00767
:1003600007D070BDD4E9012130469047206A401C77
:1003700020626D1EF6D570BD70B5044685690078A3
:10038000C00707D170BDD4E9012120209047206A21
:10039000401C20626D1EF6D570BD00002DE9F041B5
:1003A0000646002410687529314616A510D0AFF313
:1003B0000080002802DA404213A507E031688A076E
:1003C00001D512A502E0490704D511A5012401E0D9
:1003D000AFF3008000210A2206F1240709E0B0FBF8
:1003E000F2FCB0FBF2F302FB1C00303078541846EC
:1003F000491C0028F3D123462A463046BDE8F04187
:1004000000F0A3B9000000002D0000002B00000048
:10041000200000002DE9F05F894604464FF0000AF5
:10042000DFF824B1FB44C0F820A02046E1688847EB
:1004300000287DD0252806D0D4E901219047206AE4
:10044000401C2062F1E700255F462046E1688847AE
:100450002028064607DB312E05D2B81910F8200CEB
:1004600008B10543F1E7A80701D525F00405C4F854
:100470001CA00027C4F818A02A2E09D0304603F08B
:100480006BFE38B304EB8708303EC8F8186019E0FB
:1004900059F8041B204604EB87029161E168884704
:1004A000012F064618D1E069002820DA25F0200542
:1004B0001DE0D8F8180000EB800006EB4000303853
:1004C000C8F818002046E1688847064603F044FE55
:1004D0000028EED1012F0AD02E2E08D12046E16847
:1004E00088477F1C0646022F45F02005C4DBA06923
:1004F000002803DA404245F00105A061E80701D079
:1005000025F01005A6B1A6F14100192802D8203621
:1005100045F400654A463146204625604D46FFF7C2
:100520003FFE60B1012807D0ED1D25F0070000E077
:1005300007E000F1080978E705F1040975E730469E
:100540007AE7206ABDE8F09FD2B2000040EA0103DA
:1005500010B59B070FD1042A0DD310C808C9121F6C
:100560009C42F8D020BA19BA884201D9012010BDA6
:100570004FF0FF3010BD1AB1D30703D0521C07E073
:10058000002010BD10F8013B11F8014B1B1B07D1D7
:1005900010F8013B11F8014B1B1B01D1921EF1D148
:1005A000184610BD032A40F2308010F0030C00F012
:1005B000158011F8013BBCF1020F624498BF11F89D
:1005C00001CB00F8013B38BF11F8013BA2F1040256
:1005D00098BF00F801CB38BF00F8013B11F00303CE
:1005E00000F04C83083AC0F0088051F8043B083A08
:1005F00051F804CBA0E80810F5E7121D5CBF51F8D4
:10060000043B40F8043BAFF30080D20724BF11F84D
:10061000013B11F801CB48BF11F8012B24BF00F8B2
:10062000013B00F801CB48BF00F8012B704702F0F6
:10063000FF0343EA032242EA024200F053BB704741
:1006400070477047704753EA020C00F069802DE94B
:10065000F04B4FF00006002B1FBFB3FA83F503FAEF
:1006600005F424FA05F65E4012BF1643B2FA82F58D
:1006700002FA05F4C5F120051EBF22FA05FC44EA82
:100680000C04203556EA044C4FEA144418BF641C8D
:100690004FF000084FF00009904271EB030C39D382
:1006A000002919BFB1FA81F701FA07F6B0FA80F70D
:1006B00000FA07F6C7F120071EBF20FA07FC46EA3A
:1006C0000C062037B6FBF4FCA7EB0507103F07F03C
:1006D0001F0BCBF120060CFA0BFB2CFA06F644BFDD
:1006E000B3460026202FA4BF5E464FF0000B5BEA06
:1006F000060C08BF4FF0010B19EB0B09ABFB027C9A
:1007000048EB0608C01B06FB02CC0BFB03CC71EBCD
:100710000C01C1E70B46024641464846BDE8F08B56
:1007200013B54FF000004FF00001AFF30080BDE8BB
:100730001C40704710B500F0F9FA006810BD10B504
:10074000044600F0F3FA046010BD2DE9F0470D46B1
:1007500099469246044600F124080168880604D5AB
:10076000E06921F01001216000E00120A84201DDD4
:10077000471B00E00027A1697A1902EB0900081A5B
:10078000A0612078C00602D42046FFF7DFFD0026D6
:1007900008E0D4E901211AF806009047206A401CBD
:1007A000761C20624E45F4DB2078C0060AD5204630
:1007B000FFF7CCFD06E0D4E9012130209047206A04
:1007C000401C2062381EA7F10107F4DC07E0D4E9E1
:1007D000012118F805009047206A401C2062281E5D
:1007E000A5F10105F3DC2046FFF7C6FD20780006E1
:1007F00002D50220BDE8F0870120FBE770472DE914
:10080000FF4F0C461E464FF0FF378BB0D2E9000178
:10081000DDF860800A908A46C1F30A5505B93D4665
:10082000002108464FF00000BAF1000F00F440002C
:1008300005DA00EB80004FF4400101EA50004FEA76
:100840009059B9F1010F00DDB9460A9850EA4A0003
:100850000ED044F61050A5F2FF3545432F14B8F1E1
:10086000000F1ED07542291E1EDDC9F100021CE0DA
:10087000B8F1010F4FF0000001D0302103E0F24346
:1008800005E02154401CB042FBDB30460022002131
:1008900021540B99C1F80880C1E900200FB0BDE8D0
:1008A000F08FBD1B6D1CDEE74A4600DA694206A8E0
:1008B00000F0C6FA06AB93E8070003AB83E8070035
:1008C00050460A9900F0CCFB8DE80700A0F50050D7
:1008D0001F3800900398002D0ADD42F21F014A469E
:1008E0000844002303A90390684600F035FE09E0A0
:1008F000A0F500504A461F38002303A9039068461C
:1009000000F03FFE8DE807000004000C03D04FF01C
:10091000FF30410800E01046B8F1000F03D000227C
:10092000009215461EE0751E05D400F003FA303221
:1009300062556D1EF9D5B3460122084302D000224C
:100940007F1C04E02078302801D100227F1E002A7D
:10095000099784D01DE0112D07DA00F0EBF9303251
:1009600062556D1C50EA0102F5D1084302D000988F
:10097000C8B10EE00021681E05E0235C625C635490
:100980002254401E491C8142F7DBAB46A81B401E87
:100990000990002004F80B000B98099AC0F8088011
:1009A000C0E9002B7AE711264FF0000857E72DE940
:1009B000F04F88460446D21D22F0070191B0D1E9DC
:1009C0000001CDE90A0103F04BFB02460B98C00F72
:1009D00001D02D2007E02068810701D52B2002E0FF
:1009E000202101EAC000032A099001D0072A05DB73
:1009F00003464146204600F0E3F90BE120788006EB
:100A000001D5E06900E00620B8F1650F814606D007
:100A1000B8F1660F18D0B8F1670F70D131E000203F
:100A2000B9F1110F009001DB112301E009F101037D
:100A30000AAA01A90CA8FFF7E2FEDDE90C70002666
:100A400009F10105834647E001204B4600904FF035
:100A500000470AAA01A90CA8FFF7D1FEDDE90DB0F5
:100A60000C995D46002610B909F101000D18B9EB8B
:100A7000050003D4C0F1FF3609F10105A5EB09001B
:100A80002BE0B9F1010F01DA4FF001090020B9F1B3
:100A9000110F0090484601DD112300E003460AAA29
:100AA00001A90CA8FFF7ABFEDDE90C704D4600264E
:100AB0008346207800070AD4AB4500DA5D4601A8DA
:100AC000012D04DD411911F8011C302907D04F45D3
:100AD00002DA17F1040F04DA012082460FE06D1EDE
:100AE000EEE7002F02DCED1B3E4403E0781CA84239
:100AF00000DD7D1CB81B00F1010A4FF00047207893
:100B0000000703D4AA4501DB4FF0FF3A0021B7F1FB
:100B1000004F0DF143088DF8431024D002202B2301
:100B2000002F01DA7F422D230A21021EA0F10100CD
:100B300000DC5FB197FBF1FC97FBF1F201FB1C7C41
:100B400017460CF1300C08F801CDEEE7A8F10100D2
:100B500003702188090501D5452100E06521A0F138
:100B6000010800F8011C09980FA9A1EB0807FF1D57
:100B700000B10120411901EBEA70A1693844081A5B
:100B8000401EA0612078C00602D42046FFF7DEFB9D
:100B9000099828B1D4E901219047206A401C2062BD
:100BA0002078C00622D52046FFF7D0FB1EE0002E9D
:100BB00004DBB34502DD01A8805D00E03020D4E90C
:100BC00001219047206A401C2062761CAAF1010096
:100BD0005FEA000A0AD100F0A5F8C0680168405C2D
:100BE000D4E901219047206A401C2062281EA5F10B
:100BF0000105DCDC07E0D4E9012118F8010B90477E
:100C0000206A401C2062381EA7F10107F3DC204651
:100C1000FFF7B2FB032011B041E6000001694A1C56
:100C200002610878704700B58FB0CDE9013100212D
:100C3000059105497944CDE9031011466846FFF74F
:100C4000E9FB0FB000BD0000E5FFFFFF0A6802F8F6
:100C5000010B0A6070470000074B70B50D467B44DE
:100C6000FFF7E1FF0446284600F05CF910B14FF0B1
:100C7000FF3070BD204670BD4B48000010B5203AD3
:100C8000C0F00B80B1E81850203AA0E81850B1E845
:100C90001850A0E81850BFF4F5AF5FEA027C24BFFB
:100CA000B1E81850A0E8185044BF18C918C0BDE8F2
:100CB00010405FEA827C24BF51F8043B40F8043BBB
:100CC00008BF7047D20728BF31F8023B48BF11F870
:100CD000012B28BF20F8023B48BF00F8012B7047CA
:100CE0004FF000020429C0F0128010F0030C00F055
:100CF0001F81CCF1040CBCF1020F18BF00F8012BCE
:100D0000A8BF20F8022BA1EB0C0100F011B95FEA9B
:100D1000C17C24BF00F8012B00F8012B48BF00F86C
:100D2000012B704700487047542F0020004870473F
:100D3000342F002030B5B0F10A024FEA900E71F165
:100D400000034EEA817EB0EB0E0061EB91014FEAA9
:100D5000101E4EEA017E10EB0E0041EB11114FEA1E
:100D6000102E4EEA016E10EB0E0041EB11214FEAFE
:100D7000104E4EEA014E10EB0E0041EB11414018AF
:100D800041F100014FEAD00040EA41704FEAD10141
:100D900010EB80054FEA810444EA907444EB0104AF
:100DA0006D1944EB0404521BA3414FF0000348BFEC
:100DB0000A3200D530BD401C41F1000130BD0000B9
:100DC0002DE9F0411F46044603260168072A01F475
:100DD000006004DB08B116A505E016A503E008B124
:100DE00015A500E015A521F010002060A069C01E27
:100DF000A0610FB1401EA0612046FFF7A7FA4FB1D6
:100E0000D4E9012138469047206A401C2062C01C6A
:100E1000206206E0206AFAE7D4E9012115F8010B07
:100E20009047761EF8D22046FFF7A6FABDE8F0817B
:100E30004E414E006E616E00494E4600696E66007E
:100E40002DE9F047814616468AB0354878440DC8EA
:100E50008DE80D0032487844801C03AC0DC884E84E
:100E60000D0041F69B300844372190FBF1F290FBD6
:100E7000F1F5A5F1800501FB12041B3C02D564428B
:100E8000012000E00020DFF898A080460027FA4407
:100E9000AAF1BE0A0EE0E0070AD03246684607EB28
:100EA000470101230AEB810100F06BFB8DE807008D
:100EB00064107F1C002CEED1194F7F44AE3F19E027
:100EC000E80715D007EB04100DF1180A90E80E00A2
:100ED0008AE80E00C068F04201D1981908903246A5
:100EE000012306A903A800F04CFB03AB83E807002D
:100EF0006D10641C002DE3D14FF0010332466946AA
:100F0000B8F1000F03A802D000F026FB01E000F0CA
:100F100038FBC9E90001C9F808200AB0BDE8F0872C
:100F20002CAA0000007B00F0800070474FF0000208
:100F300000B5134694469646203922BFA0E80C50CF
:100F4000A0E80C50B1F12001BFF4F7AF090728BFAA
:100F5000A0E80C5048BF0CC05DF804EB890028BF26
:100F600040F8042B08BF704748BF20F8022B11F04F
:100F7000804F18BF00F8012B7047000000487047F1
:100F8000342F00207546FFF7F9FFAE46050069468D
:100F9000534620F00700854618B020B5FFF77EF9CC
:100FA000BDE820404FF000064FF000074FF000086A
:100FB0004FF0000B21F00701AC46ACE8C009ACE8EB
:100FC000C009ACE8C009ACE8C0098D46704710B54F
:100FD0000446AFF300802046BDE81040FFF7FDB89F
:100FE0004FF0013C50F8042B51F8043B9A4221D1B8
:100FF000A2EB0C03934313EACC1317D150F8042B44
:1010000051F8043B9A4215D1A2EB0C03934313EA27
:10101000CC130BD150F8042B51F8043B9A4209D160
:10102000A2EB0C03934313EACC13DBD04FF0000088
:10103000704700BFD01A01BAB1FA81F101F018016E
:1010400022FA01F0CB40C1F12001DBB2C0B2C01ADC
:101050002CFA01F3D11A914311EAC311E6D170477A
:101060005FEA400C08BF91F0000F4FEA8C234FEA73
:10107000C12243EA51514FEA1C5018BF00F5F0401D
:101080004FEA300018BF41F000415FEA6C5C00F0AD
:101090002980BCF1FF3F08BF40F080407047130C2F
:1010A00006BF12044FF0100C4FF0000C130E04BFDB
:1010B00012020CF1080C130F04BF12010CF1040C06
:1010C000930F04BF92000CF1020CD30F04BF520027
:1010D0000CF1010C11464FF00002A0F11F00A0EB33
:1010E0000C00704711F0004F08BF704731F000410D
:1010F0003FF4D5AF0B0C06BF09044FF0100C4FF0B6
:10110000000C0B0E04BF09020CF1080C0B0F04BFFE
:1011100009010CF1040C8B0F04BF89000CF1020CC7
:10112000CB0F04BF49000CF1010CCCF12003A0EB64
:101130000C0022FA03F302FA0CF241EA030100F177
:101140000100704720F07F4C80EA030023F07F47C6
:10115000ACEB070303F57C5300F0004003F1FF0301
:101160002DE980494FEA154B09B44FEA144325EAAB
:101170000B4E24EA03480FF2042606EB1327490816
:101180003E785FEA320203FB0667C7F5000707FBFC
:1011900006F64FEA54374FEAD64606F1020607FB39
:1011A000066CCCF1005C4FEA1C472CEA074C07FBAD
:1011B00006F40CFB06F504EB15464FEA961634BF11
:1011C00000204FF000404FEAD13706FB07FC4FEA02
:1011D0001C4C0CFB0BF7D21B03FB0CF761EB07015C
:1011E0000CFB0EF7B0EB074072EB17420CFB08F755
:1011F00034BFA2EB0742B2EB074261EB17414FEA63
:101200000C444FEA910706FB07FC4FEA1C4C0CFB11
:101210000BF7B0EBC74072EB573203FB0CF734BF50
:10122000A2EBC742B2EBC74261EB57310CFB0EF7A2
:10123000B0EBC70072EB57720CFB08F734BFA2EBA0
:10124000C702B2EBC70261EB5771039F4FEA81619E
:1012500041EA921104EBCC044FEAD1374FEA8262A3
:1012600006FB07FC42EA90124FEA80604FEA1C4CF2
:101270000CFB0BF7D21B03FB0CF761EB07010CFB1C
:101280000EF7B0EB074072EB17420CFB08F734BFC8
:10129000A2EB0742B2EB074261EB17414FEA8C55D4
:1012A0004FEA910704EB9C2406FB07FC4FEA1C4C19
:1012B0000CFB0BF7B0EBC74072EB573203FB0CF79C
:1012C00034BFA2EBC742B2EBC74261EB57310CFB14
:1012D0000EF7B0EBC70072EB57720CFB08F734BF88
:1012E000A2EBC702B2EBC70261EB577115EB4C25BD
:1012F0004FEA816141EA92114FEA82624FEAD137A7
:1013000042EA901206FB07FC44F100044FEA8060B9
:101310004FEA1C4C0CFB0BF7D21B03FB0CF761EBE9
:1013200007010CFB0EF7B0EB074072EB17420CFB0A
:1013300008F734BFA2EB0742B2EB074261EB17415B
:1013400015EB1C154FEA813141EA92414FEA823296
:1013500042EA90424FEA80304FEA0C7644F10004B2
:1013600048EA03434EEA0B484FF0000EB2EB080C7C
:1013700071EB030724BF624639464EEB0E0E4FF069
:10138000000B0018524149414BEB0B0BB2EB080C20
:1013900071EB03077BF1000B24BF624639464EEB2D
:1013A0000E0E4FF0000B0018524149414BEB0B0B56
:1013B000B2EB080C71EB03077BF1000B24BF624614
:1013C00039464EEB0E0E51EA020718BF46F00106F1
:1013D00016EB0E7655F1000254F1000103D5BDE87D
:1013E0008901BDE80088BDE88901BDE80048B6195B
:1013F000524141EB0101A3F10103704780807F7EE0
:101400007D7C7B7A7978777676757473727171707A
:101410006F6E6E6D6C6C6B6A6A696868676666652C
:101420006464636362616160605F5F5E5E5D5D5CBA
:101430005C5B5B5A5A59595858575756565555552B
:101440005454535352525251515050504F4F4F4E8B
:101450004E4D4D4D4C4C4C4B4B4B4A4A4A494949D9
:10146000484848474747474646464545454444441B
:10147000444343434342424242414141002B9C4644
:1014800030D477002BD01CB54FEA370703B44FF0A8
:1014900010004FF01001BAF1000F06D0BCF1000FA0
:1014A000DCBF40F0080040F008014FF000000FBC26
:1014B000BDE810400BF1010BBBF1010F08BF5FEA63
:1014C000170722BF12F1010211F101014FF0004193
:1014D00043F1000300F0004043EA00007047F9D3F5
:1014E0005708D0E746EA064613F1400F4FEA164682
:1014F0001FDD13F1200FDFBF16430A460021203302
:101500005B42BED0C3F1200746EA064602FA07F75F
:101510004FEA164646EA0706C3F1200722FA03F20D
:1015200001FA07F721FA03F14FF0000342EA07023C
:10153000A7E746EA020646EA06464FEA164646EAA4
:101540000106BCBF46EA0646360C4FF000034FF0DA
:1015500000024FF0000194E72DE9804C9A46934633
:1015600070B491E8380007C831EA400C48BF34EA4B
:10157000430C03D5FFF7E6FDFFF780FFF0BCBDE8A5
:10158000008C2DE9804C9A46934670B491E838005F
:1015900007C810F0804F08BF13F0804F03D100F050
:1015A00005F8FFF76BFFF0BCBDE8008C20F07F472B
:1015B00080EA030023F07F4C07EB0C03A3F57C5378
:1015C00000F00040A3F1FE0392F0000F00F0B380A2
:1015D00095F0000F00F077802DE901494FEA1140A6
:1015E0004FEA144621EA004800FB06FC24EA0647BD
:1015F00008FB06F607FB08F800FB07F718EB0648A0
:101600004CEB164C4FEA124B18EB07484FEA1546C5
:101610004CEB174022EA0B4E0BFB06FC25EA064773
:101620000EFB06F607FB0EFE0BFB07F71EEB064E46
:101630004CEB164C4FF000061EEB074E4CEB174BD5
:1016400018EB0B0840F1000018EB0E0B58EB0008EC
:1016500040F100008F1A4FF000013CBFC943661BE8
:1016600014BFB5EB040C00213CBFC943F61B4FEA85
:1016700017444EEA8E0E27EA04454FEA1C4704FB46
:1016800007622CEA074C05FB07F70CFB05F604FB89
:101690000CFC16EB074642EB174216EB0C4642EBEE
:1016A0001C421BEB060658EB0202414146EA9E062D
:1016B00001D5BDE80189B619524141EB0101A3F101
:1016C0000103BDE801894FEA14454FEA114724EAB6
:1016D000054621EA074C05FB07F406FB07F70CFB60
:1016E00006F105FB0CFC11EB074144EB17444FEAF4
:1016F000124711EB0C4144EB1C4422EA074C05FB5A
:1017000007F206FB07F70CFB06F605FB0CFC16EBD5
:10171000074642EB174216EB0C4642EB1C456A1893
:1017200054F1000148BF7047B619524141EB010125
:10173000A3F10103704795F0000F37D04FEA114233
:101740004FEA144721EA024624EA074C02FB07F15C
:1017500006FB07F70CFB06F402FB0CFC14EB07443A
:1017600041EB17414FEA154714EB0C4441EB1C4188
:1017700025EA074C02FB07F506FB07F70CFB06F60C
:1017800002FB0CFC16EB074645EB174516EB0C4627
:1017900045EB1C42121951F1000148BF7047B619C0
:1017A000524141EB0101A3F1010370474FEA144597
:1017B0004FEA114724EA054621EA074C05FB07F1E9
:1017C00006FB07F70CFB06F24FF0000605FB0CFCCE
:1017D00012EB074241EB174112EB0C4251EB1C415B
:1017E00048BF7047921841EB0101A3F10103704714
:1017F00030B589B005460C460121022001F0F8FA07
:101800000121082001F004FB0220ADF8200018207F
:101810008DF8230003208DF8220008A9184800F055
:10182000B1FBADF81850ADF814400020ADF81A0027
:10183000ADF8160005A9134802F004F96020ADF8D0
:1018400004000120ADF806000020ADF80A00ADF854
:101850000C0001A90B4802F077F80121094801F0BA
:1018600080FF0821074802F0ADF80121054801F08A
:101870005DFF0121034801F068FF09B030BD0000A1
:10188000000C01400004004000B587B0012108466B
:1018900001F0AEFA0121042001F0BAFA0320ADF8FC
:1018A000000004208DF8030069461E4800F06AFB22
:1018B00004A802F019F90020ADF810004FF6FF70EF
:1018C000ADF814000020ADF81600ADF8120004A920
:1018D0004FF0804002F0B6F800231A4603214FF083
:1018E000804001F04DFF01A801F0C2FF0A20ADF8D1
:1018F0000C0001A9400701F065FF0121880701F0F4
:1019000021FF01221146900701F0BBFF00214FF09B
:10191000804002F069F80121880701F016FF07B046
:1019200000BD00000008014030B589B005460C46F6
:101930000121022001F05CFA0121082001F068FA7F
:101940000120ADF8200018208DF8230003208DF829
:10195000220008A9164800F015FBADF81850ADF8A4
:1019600014400020ADF81A00ADF8160005A9114882
:1019700002F068F86020ADF804000120ADF8060020
:101980000020ADF80A00ADF80C0001A9094801F0EB
:1019900081FF0821074801F0CDFF0121054801F032
:1019A000C5FE0121034801F0D0FE09B030BD0000A2
:1019B000000C01400004004000B587B00121042064
:1019C00001F016FA0121082001F022FAC020ADF83A
:1019D000000004208DF8030069461C4800F0D2FA8C
:1019E00004A802F081F80020ADF810004FF6FF7057
:1019F000ADF814000020ADF81600ADF8120004A9EF
:101A0000134802F01FF800231A460321104801F082
:101A1000B7FE01A801F02CFF0A20ADF80C0001A9C7
:101A20000B4801F0CFFE0121094801F08BFE012295
:101A30001146074801F025FF0021054801F0D4FFB9
:101A40000121034801F081FE07B000BD000C0140F8
:101A50000008004070B500242349086807F0FAFF29
:101A600005460B462246641C02EB82011F4A02EB2C
:101A700081002A461EA1FEF755FC1B49486807F065
:101A8000E9FF05460B462246641C02EB8201174A19
:101A900002EB81002A461AA1FEF744FC124988682D
:101AA00007F0D8FF05460B462246641C02EB820174
:101AB0000E4A02EB81002A4615A1FEF733FC0A49C3
:101AC000C86807F0C7FF05460B462246641C02EBB8
:101AD0008201064A02EB81002A4611A1FEF722FC90
:101AE000204601F06FF970BDF00200205003002085
:101AF00042414C5F45783A25322E326600000000A4
:101B000042414C5F4B703A25322E32660000000095
:101B100042414C5F4B693A25322E3266000000008C
:101B200042414C5F4B643A25322E32660000000081
:101B300008B501210C2001F06BF94FF48050ADF88D
:101B4000000010208DF8030003208DF80200694684
:101B5000064800F017FA4FF48051044800F0E8FA04
:101B60004FF48051014800F0E3FA08BD000801403D
:101B700070B5044604F0F005102D55D1A4F1110004
:101B80000C2850D2DFE800F0060E121A1E2428306E
:101B9000343C45465D4948685D4907F087FF5B492D
:101BA000486040E05B485C4908603CE05749486851
:101BB0005A4908F083FA5549486034E05848594971
:101BC000086030E04FF48051574800F0AFFA2AE047
:101BD00050485449086026E04C49C868534907F00A
:101BE00065FF4A49C8601EE04D484B4908601AE04D
:101BF0004649C8684E4908F061FA4449C86012E095
:101C0000454948684FF07E5107F050FF424948600F
:101C100009E008E0404948684FF07C5108F04EFA6E
:101C20003D49486000BF70E0202D23D1A4F1210080
:101C30000C281ED2DFE800F01206100B140C11075E
:101C4000131A1B1C00BF00203349086011E000BFBD
:101C50000020344908600CE000BF00BF00BF08E06E
:101C60004FF48051304800F063FA02E001E000E0F8
:101C700000BF4AE0302D2AD1A4F131000C2825D232
:101C8000DFE800F0060A0E12161A1E1F202122237A
:101C900001202849087019E002202649087015E043
:101CA00003202449087011E00420224908700DE047
:101CB00005202049087009E006201E49087000BF71
:101CC00004E003E002E001E000E000BF1DE0402D81
:101CD0001BD1A4F141000C2816D2DFE800F0060762
:101CE00008090A0B0F101112131400BF00BF00BF28
:101CF00000BF00BF00200F49087005E004E003E0CA
:101D000002E001E000E000BF00BF70BDF002002073
:101D10000000204100004842300300200000A040A5
:101D2000000048C21003002000080140CDCCCC3D8B
:101D3000CDCC4C3D5C00002000BFFEE770470000AA
:101D400070B500242349086807F084FE05460B4659
:101D50002246641C02EB82011F4A02EB81002A46E4
:101D60001EA1FEF7DFFA1B49486807F073FE05461F
:101D70000B462246641C02EB8201174A02EB8100EB
:101D80002A461AA1FEF7CEFA1249886807F062FEC9
:101D900005460B462246641C02EB82010E4A02EB0A
:101DA00081002A4615A1FEF7BDFA0A49C86807F066
:101DB00051FE05460B462246641C02EB8201064A90
:101DC00002EB81002A4611A1FEF7ACFA204600F092
:101DD000F9FF70BD10030020500300204449525FFA
:101DE00045783A25322E3266000000004449525FA1
:101DF0004B703A25322E3266000000004449525F93
:101E00004B693A25322E3266000000004449524C9C
:101E10005F4B643A25322E326600000010B5074849
:101E2000006848B9042006490860002301220548DB
:101E30000168054807F082F810BD00000801214242
:101E40001404014040000020197D000810B5074827
:101E5000006848B9082006490860002302220548A6
:101E60000168054807F06AF810BD00000C01214226
:101E70001404014040000020197D000810B50648F8
:101E8000006840B920200549086000221146044836
:101E9000006806F0E3F910BD1481214214040140EA
:101EA0003C000020002123498279002A3AD00A46CA
:101EB000126803689A430B461A600A1D1268036889
:101EC0009A430B1D1A60027911440A6803681A4389
:101ED0000A60184A0832126803689A43154B08339F
:101EE0001A601A1D126803689A43124B0C331A6069
:101EF0004279102A0ED11A1F126803681A430D4B3B
:101F000008331A601A1D126803681A43094B0C3310
:101F10001A600DE00749427911440A6803681A43C0
:101F20000A6005E0027911440A6803689A430A606E
:101F3000704700000004014010B5FFF7A5FCFFF753
:101F40003BFD10BD30B500228B071C0F0F2303FA99
:101F500004F20B4B8C1053F824309343084C8D1033
:101F600044F8253023468C1053F824308C07240F76
:101F700000FA04F42343024C8D1044F8253030BDA0
:101F8000080001402DE9F04102460025002600200E
:101F900000230024002791F803C00CF00F0591F8EE
:101FA00003C00CF0100CBCF1000F03D091F802C07C
:101FB0004CEA050591F800C0BCF1000F31D014685F
:101FC00000202BE04FF0010C0CFA00F3B1F800C038
:101FD0000CEA03069E4220D183004FF00F0C0CFA4E
:101FE00003F7BC4305FA03FC4CEA040491F803C070
:101FF000BCF1280F06D14FF0010C0CFA00FCC2F81E
:1020000014C00AE091F803C0BCF1480F05D14FF0AD
:10201000010C0CFA00FCC2F810C0401C0828D1D3F7
:102020001460B1F800C0BCF1FF0F34DD546800202B
:102030002EE000F1080C4FF0010808FA0CF3B1F89B
:1020400000C00CEA03069E4221D183004FF00F0C22
:102050000CFA03F7BC4305FA03FC4CEA040491F8BC
:1020600003C0BCF1280F05D100F1080C08FA0CF8E8
:10207000C2F8148091F803C0BCF1480F07D100F1F9
:10208000080C4FF0010808FA0CF8C2F81080401C48
:102090000828CED35460BDE8F0810000F0B50A46B0
:1020A000002300240021002500F00046B6F1004F77
:1020B00002D11D4EF16901E01B4E7168C0F303456A
:1020C00083B200F44016B6F5401F08D121F07061CC
:1020D000154E766826F07066134F7E6012E000F4AD
:1020E0008016B6F5801F06D1032606FA05F4A14333
:1020F00041F0706106E0460D360103FA06F6B14381
:1021000041F0706122B1460D360103FA06F6314303
:1021100000F00046B6F1004F02D1034EF16101E03C
:10212000014E7160F0BD0000000001404161704748
:102130000161704700BFFEE770B500241B480068CE
:1021400007F088FC05460B462246641C02EB820120
:10215000174A02EB81002A4616A1FEF7E3F8184859
:10216000006807F077FC05460B462246641C02EB2C
:1021700082010F4A02EB81002A4612A1FEF7D2F833
:102180001348006807F066FC05460B462246641CAF
:1021900002EB8201064A02EB81002A460DA1FEF7FE
:1021A000C1F8204600F00EFE70BD0000280000209F
:1021B0005003002050697463683A25322E3266005D
:1021C0002C000020726F6C6C3A25322E32660000B3
:1021D000300000207961773A25322E326600000007
:1021E0000EB502210020FFF7ADFE04200190002073
:1021F0008DF808000C208DF8090001208DF80A00E8
:1022000001A8FFF74FFE03210020FFF79BFE0820E7
:10221000019000208DF808000C208DF809000120A5
:102220008DF80A0001A8FFF73DFE08208DF8000098
:1022300001208DF801008DF802008DF8030068463A
:1022400000F0A0FB09208DF8000001208DF80100AE
:1022500002208DF8020001208DF80300684600F08E
:1022600091FB0EBD08B50121052000F0D1FD0C2029
:10227000ADF8000004208DF8030069460148FFF71F
:1022800081FE08BD0008014070B50546002400BF6E
:102290000AE005FA04F000F0080010B101F0C2FEF7
:1022A00001E001F0A9FE641C082CF2DB70BD000007
:1022B00008B50121182000F0ABFD4FF40070ADF817
:1022C000000010208DF8030003208DF802006946FD
:1022D0000C48FFF757FE00F0FBFE4FF40050ADF83E
:1022E000000003208DF8020010208DF803006946DD
:1022F0000548FFF747FE4FF400510348FFF718FF6A
:1023000008BD0000000C0140001001401FB5012174
:10231000092000F07DFD2020ADF80C0048208DF84C
:102320000F0003A91148FFF72DFE05210120FFF73B
:1023300009FE2020019000208DF808000C208DF867
:10234000090001208DF80A0001A8FFF7ABFD172056
:102350008DF8000000208DF8010001208DF80200AA
:102360008DF80300684600F00DFB1FBD000C014016
:102370002DE9FC4104460D4616466B4606224321D4
:10238000682000F0C3F90746BFB99DF801009DF829
:10239000001040EA012000B220809DF803009DF863
:1023A000021040EA012000B228809DF805009DF847
:1023B000041040EA012000B230803846BDE8FC81BC
:1023C00010B500200E4908600E48006820F47040E7
:1023D0000C4908600846006840F44050086000203E
:1023E0000949C1F88C0100F011F801200449086086
:1023F00000F00CF800200449C1F8900110BD000065
:1024000090812142000C01400080214210B5022041
:1024100002F048FA10BD000008B50121092000F0C3
:10242000F7FC01210848FFF739FE1820ADF800003D
:1024300010208DF8030003208DF802006946034840
:10244000FFF7A0FD08BD000000023000000C0140B5
:1024500010B500200E4908600E48006820F4704056
:102460000C4908600846006840F4405008600120AC
:102470000949C1F88C01FFF7C9FF01200449086030
:10248000FFF7C4FF00200449C1F8900110BD00000F
:1024900090812142000C01400080214270B5054628
:1024A00000241648006820F470401449086008466B
:1024B000006840F400400860002614E00020104945
:1024C0000860FFF7A3FF01200E49C1F890016006E4
:1024D000040E0B488438006808B1601CC4B2FFF7D2
:1024E00095FF701CC6B2082EE8DB15B9FFF7B0FFE8
:1024F00001E0FFF765FF204670BD0000000C0140C1
:10250000908121420080214270B504461248006843
:1025100020F47040104908600846006840F44050BC
:10252000086000200D490860002512E0E0090B4911
:10253000091F08606006040E01200949C1F89001D6
:10254000FFF764FF002005490860FFF75FFF681C84
:10255000C5B2082DEADB70BD000C0140908121421C
:102560000080214210B50E48006820F470400C49EC
:1025700008600846006840F440500860012009499E
:1025800008600949C1F89001FFF740FF00200549A4
:102590000860FFF73BFF00200349C1F8900110BD20
:1025A000000C01408C8121420080214210B50E4870
:1025B000006820F470400C4908600846006840F448
:1025C000405008600020094908600949C1F88C01A1
:1025D000FFF71CFF0120054908600549C1F88C017F
:1025E000FFF714FF10BD0000000C01409081214254
:1025F0000080214210B500241448006820F4704087
:10260000124908600846006840F400400860012054
:102610000F490860FFF7FAFE01200E49C1F890014A
:10262000FFF7F4FE07E0601CC4B2FA2C03DDFFF7ED
:10263000BDFF012010BD0648803800680028F2D197
:102640000349091D086000BFF4E70000000C0140C9
:102650008C8121420080214210B5FFF7DDFE8021F0
:102660006B2000F0D7F8642005F078FD00216B2086
:1026700000F0D0F8032000F08BF8002000F080F884
:10268000322000F0AAF80021382000F0C3F8002121
:102690006A2000F0BFF80021232000F0BBF8802161
:1026A000372000F0B7F8752000F013F80446682CC6
:1026B0000BD101216B2000F0ADF800216C2000F05F
:1026C000A9F8322000F089F801E0012010BD0020B7
:1026D000FCE770B50446FFF745FFD020FFF714FF75
:1026E000FFF788FF2046FFF70FFFFFF783FFFFF795
:1026F00039FFD120FFF708FFFFF77CFF0020FFF72D
:10270000CDFE0546FFF752FF284670BD2DE9F0418A
:1027100006460F4614461D46FFF724FF002141EAF6
:102720004601C8B2FFF7F0FEFFF764FF20B1FFF7E4
:102730003DFF0120BDE8F0813846FFF7E5FEFFF7D9
:1027400059FFFFF70FFF012101EB4601C8B2FFF768
:10275000DBFEFFF74FFF0DE0012C04D10020FFF757
:102760009DFE287003E00120FFF798FE2870601E90
:10277000C4B26D1C002CEFD1FFF718FF0020D9E781
:1027800010B50446E006010E1C2000F043F810BD11
:1027900010B50446E006010E1B2000F03BF810BD0A
:1027A00070B504460025BC2C01DB012510E0622C2D
:1027B00001DB02250CE02A2C01DB032508E0142CA8
:1027C00001DB042504E00A2C01DB052500E00625D9
:1027D00029461A2000F01EF870BD70B50446B4F505
:1027E0007A7F01DD4FF47A74042C00DA04244FF46C
:1027F0007A7090FBF4F0401EC5B22946192000F013
:1028000009F80546264604EBD671C1F34F00FFF7E1
:10281000C7FF70BD70B505460C46FFF7A3FED0207C
:10282000FFF772FEFFF7E6FE18B1FFF7BFFE0120CB
:1028300070BD2846FFF768FEFFF7DCFE2046FFF775
:1028400063FEFFF7D7FE18B1FFF7B0FE0120EFE7F8
:10285000FFF7ACFE0020EBE72DE9F04105460E4600
:1028600017469846FFF77EFE002141EA4501C8B2AF
:10287000FFF74AFEFFF7BEFE20B1FFF797FE0120EB
:10288000BDE8F0813046FFF73FFEFFF7B3FE0024BE
:102890000CE018F80400FFF737FEFFF7ABFE18B1A5
:1028A000FFF784FE0120EBE7601CC4B2BC42F0DB02
:1028B000FFF77CFE0020E3E700BFFEE708B501213B
:1028C000082000F0A5FA4FF47040ADF80000102089
:1028D0008DF8030003208DF8020069460E48FFF7CB
:1028E00051FB00200D4908600D49C1F8B0010B49AA
:1028F000091D08600A49C1F8BC01002141F61F40CA
:10290000FEF776FF002141F61F40FFF70DF800218A
:10291000084605F067F808BD000C0140B48121426B
:102920000080214210B508E010230FA208210020EA
:1029300000F02AF9C82005F011FCFFF78DFE0028F1
:10294000F2D1C82005F00AFC08E0102309A20821F2
:10295000002000F019F9C82005F000FC03F096FAF9
:102960000028F2D110BD00004D505520696E6974E9
:102970002E2E2E00444D5020696E69742E2E2E008E
:102980007047000070B5002100230F22C47804B303
:10299000154C246804F4E064C4F5E064210AC1F134
:1029A0000403CA40447804FA03F1847814402143B4
:1029B00009010E4C0678A155047804F01F05012486
:1029C000AC4005786D11AD0005F1E025C5F800417A
:1029D00009E0047804F01F050124AC40044D06789A
:1029E000761145F8264070BD0CED00E000E400E0F3
:1029F00080E100E002490143024A11607047000093
:102A00000000FA050CED00E0024A0A400243024BC6
:102A10001A60704780FFFF1F08ED00E070B50024CA
:102A200018E004F1B000002100F0C9F800210846C8
:102A300000F0C5F80021102000F0C1F8002505E0E5
:102A40000121002000F0BBF8681CC5B2802DF7DB27
:102A5000601CC4B2082CE4DB70BD000010B58021FE
:102A60000748FFF765FB40210548FFF761FB402160
:102A70000348FFF75BFB80210148FFF757FB10BDC0
:102A80000008014010B580210548FFF751FB4021A7
:102A90000348FFF74BFB40210148FFF749FB10BDFE
:102AA0000008014010B580210348FFF741FB802159
:102AB0000148FFF73BFB10BD0008014070B504461C
:102AC0000D4605F1B000002100F079F8102141EA2F
:102AD0001410002100F073F804F00F00002100F042
:102AE0006EF870BD2DE9F04707460E4690469946B0
:102AF00000250024A8F12000C5B27F2F02DD0027A9
:102B0000B01CC6B2B9F1100F24D131463846FFF7D8
:102B1000D5FF002408E004EB0511194A505C01219F
:102B200000F04DF8601CC4B2082CF4DB701CC1B27C
:102B30003846FFF7C3FF002409E004EB0511083114
:102B40000F4A505C012100F03AF8601CC4B2082C16
:102B5000F3DB12E031463846FFF7B0FF00240AE00D
:102B600005EB4501074A02EB4101085D012100F038
:102B700026F8601CC4B2062CF2DBBDE8F08700002A
:102B8000C2A400089AA200082DE9F04105460E46AD
:102B900014461F460EE022783B4631462846FFF792
:102BA000A1FF05F10800C5B2782D02DD0025B01C9B
:102BB000C6B2641C20780028EDD1BDE8F08170B564
:102BC00004460D461DB1E0B200F046F802E0E0B266
:102BD00000F02CF870BD00002DE9F04105462C46B0
:102BE00080211148FFF7A2FA002619E0274607F0D6
:102BF0008007802F04D140210B48FFF799FA03E0AA
:102C000040210948FFF792FA6006040E8021064829
:102C1000FFF78EFA80210448FFF788FA701CC6B2CD
:102C2000082EE3DBBDE8F0810008014010B5044642
:102C3000FFF714FF7820FFF7CFFFFFF733FF0020E7
:102C4000FFF7CAFFFFF72EFF2046FFF7C5FFFFF78C
:102C500029FFFFF717FF10BD10B50446FFF7FEFE72
:102C60007820FFF7B9FFFFF71DFF4020FFF7B4FF03
:102C7000FFF718FF2046FFF7AFFFFFF713FFFFF73F
:102C800001FF10BD08B50121042000F0C1F8C020EB
:102C9000ADF8000010208DF8030003208DF802002D
:102CA00069463E48FFF76EF9C0213C48FFF740FAFD
:102CB0000021AE20FFF783FF00210846FFF77FFFCA
:102CC00000211020FFF77BFF00214020FFF777FF56
:102CD0000021B020FFF773FF00218120FFF76FFF75
:102CE0000021FF20FFF76BFF0021A120FFF767FF06
:102CF0000021A620FFF763FF0021A820FFF75FFF58
:102D000000213F20FFF75BFF0021C820FFF757FF9E
:102D10000021D320FFF753FF00210846FFF74FFFA4
:102D20000021D520FFF74BFF00218020FFF747FF50
:102D30000021D820FFF743FF00210520FFF73FFFC8
:102D40000021D920FFF73BFF0021F120FFF737FFDB
:102D50000021DA20FFF733FF00211220FFF72FFFB9
:102D60000021DB20FFF72BFF00213020FFF727FF9A
:102D700000218D20FFF723FF00211420FFF71FFF04
:102D80000021AF20FFF71BFFFFF748FE102304A22E
:102D900008210220FFF7F8FE08BD000000080140EE
:102DA0005E48656C6C6F215E0000000010B5034842
:102DB00003490860FFF732FE10BD0000392100080A
:102DC0006800002070B5054600240BE004EB840089
:102DD000064901EB80020C2321460820FFF7D4FEB0
:102DE000601CC4B2AC42F1DB70BD00005003002097
:102DF00029B1064AD2690243044BDA6104E0034A6E
:102E0000D2698243014BDA61704700000010024032
:102E100029B1064A92690243044B9A6104E0034ACD
:102E200092698243014B9A61704700000010024092
:102E30000F48006840F001000D49086008464068EE
:102E40000C4908400A494860084600680A49084099
:102E5000074908600846006820F48020086008469A
:102E6000406820F4FE0048604FF41F0088607047FF
:102E7000001002400000FFF8FFFFF6FE30B5002111
:102E80000022002400232D4D6D6805F00C0121B1B6
:102E9000042905D0082923D105E0294D056022E049
:102EA000274D05601FE0254D6D6805F47012234D18
:102EB0006D6805F48034022505EB92421CB9214D62
:102EC000554305600BE01D4D6D6805F400351DB1DF
:102ED0001C4D5543056002E0194D5543056002E065
:102EE000174D056000BF00BF144D6D6805F0F0017F
:102EF0000909154D6B5C0568DD4045600F4D6D6837
:102F000005F4E061090A104D6B5C4568DD408560A1
:102F10000A4D6D6805F46051C90A0B4D6B5C45683C
:102F2000DD40C560054D6D6805F44041890B074DD6
:102F30006B5CC568B5FBF3F5056130BD0010024060
:102F400000127A0000093D0000000020100000205F
:102F500010B501460022002300204A11012A02D1A7
:102F6000094C236806E0022A02D1074C236A01E0DB
:102F7000054C636A01F01F02012494401C400CB10F
:102F8000012000E0002010BD00100240024840680F
:102F900000F00C00704700000010024001460020C5
:102FA000034A506820F0F00008435060704700006A
:102FB000001002401149096821F480310F4A116064
:102FC0001146096821F480211160B0F5803F03D0DB
:102FD000B0F5802F0ED106E00849096841F4803130
:102FE000064A116007E00549096841F4A021034A37
:102FF000116000E000BF00BF7047000000100240F9
:1030000001460020034A506820F4E0600843506005
:10301000704700000010024001460020034A50683B
:1030200020F4605040EAC100506070470010024038
:103030000149086670470000000042420246002035
:10304000044B586820F47C1042EA01031843014BFA
:10305000586070470010024001460020034A506843
:1030600020F0030008435060704700000010024049
:1030700010B5002406E0FF220021084600F005F804
:10308000601CC4B2042CF6DB10BD70B506460C46BD
:1030900015463046FFF7F8F82046FFF7F5F82846C2
:1030A000FFF7F2F870BD10B500240EE0022C05DA2F
:1030B00000221146FF20FFF7E8FF04E00022FF2175
:1030C0001046FFF7E2FF601CC4B2042CEEDB10BD1B
:1030D00010B5002406E0002211461046FFF7D5FF88
:1030E000601CC4B2042CF6DB10BD10B5002406E051
:1030F0000022FF211046FFF7C8FF601CC4B2042C59
:10310000F6DB10BD2DE9F0410025002600272748F9
:1031100001780078401C254A1070102907DB002038
:103120001146087022480078401C2149087000248C
:1031300031E020480078042802DD00201D49087095
:103140001D481B49097800EB81101A49097850F88D
:103150002100C0F3074518481549097800EB811094
:103160001449097830F82100C0F3072612481049A5
:10317000097800EB81100F49097810F821703A4660
:1031800029463046FFF781FF0A480078401C09496C
:103190000870601CC4B2042CCBDB054800780728FB
:1031A00002D1002002490870BDE8F0813E020020F3
:1031B0003D0200203C0200207C00002010B50024CD
:1031C00006E00F2211461046FFF75FFF601CC4B2F5
:1031D000042CF6DB10BD10B5002406E00022FF2110
:1031E0000846FFF752FF601CC4B2042CF6DB10BD8A
:1031F0000146022904D003290BD0042917D10FE07E
:103200004FF08042928C10B200224FF080439A849B
:103210000FE0094A128810B20022074B1A8008E01A
:10322000064A128810B20022044B1A8001E00020E6
:1032300000BF00BF70470000240400402408004085
:1032400010B500F001F810BD0CB500200190009001
:103250003348006840F480303149086000BF30488E
:10326000006800F4003000900198401C0190009824
:1032700018B90198B0F5A06FF1D12948006800F4A1
:10328000003010B10120009001E000200090009873
:10329000012843D12348006840F01000214908600C
:1032A0000846006820F0030008600846006840F007
:1032B000020008601A48406819494860084640689A
:1032C00048600846406840F48060486008464068AE
:1032D00020F47C1048600846406840F4E8104860DC
:1032E0000846006840F08070086000BF0C48006825
:1032F00000F000700028F9D00948406820F0030071
:10330000074948600846406840F00200486000BF36
:103310000348406800F00C000828F9D10CBD0000FB
:10332000001002400020024070B500242C490868BB
:1033300006F090FB05460B462246641C02EB820118
:10334000284A02EB81002A4627A1FCF7EBFF24491B
:10335000486806F07FFB05460B462246641C02EBDC
:103360008201204A02EB81002A4623A1FCF7DAFF02
:103370001B49886806F06EFB05460B462246641C16
:1033800002EB8201174A02EB81002A461EA1FCF7DC
:10339000C9FF1349C86806F05DFB05460B46224687
:1033A000641C02EB82010F4A02EB81002A461AA13B
:1033B000FCF7B8FF0A49886906F04CFB05460B4646
:1033C0002246641C02EB8201064A02EB81002A4677
:1033D00015A1FCF7A7FF2046FFF7F4FC70BD000025
:1033E00030030020500300205350455F45783A25B4
:1033F000322E3266000000005350455F4B703A2574
:10340000322E3266000000005350455F4B693A256A
:10341000322E3266000000005350455F4B643A255F
:10342000322E326600000000696E7465673A2532FC
:103430002E326600042808D14FF0E021096941F0DE
:1034400004014FF0E022116107E04FF0E02109692B
:1034500021F004014FF0E0221161704710B51348CC
:10346000006840F0010011490860084640681049B2
:1034700008400E494860084600680E4908400B495C
:1034800008600846006820F480200860084640680C
:1034900020F4FE0048604FF41F008860FFF7D0FE64
:1034A0004FF000600449086010BD000000100240A9
:1034B0000000FFF8FFFFF6FE08ED00E0F0B50C4657
:1034C000154600220021068C4FF6FE773E4006840A
:1034D000028B018C4FF60C7632407E1C06EA0316F6
:1034E0002E433243104EB0420ED0104EB0420BD09D
:1034F000B0F1804F08D00E4EB04205D00D4EB04214
:1035000002D00D4EB04206D14FF6FD76314044F068
:103510000106314305E04FF6F576314044F00106EF
:10352000314302830184F0BD002C0140003401408E
:103530000004004000080040000C0040F0B50C46BC
:103540001546002200210026078C4FF6EF7C07EA83
:103550000C070784028B018C4FF6FF7707EA0416ED
:1035600040F6FF473A404FF6FF7707EA03373A4302
:103570004FF6FF7707EA05273A43114FB8420ED0BE
:10358000104FB8420BD0B0F1804F08D00E4FB84268
:1035900005D00E4FB84202D00D4FB84206D14FF6BB
:1035A000DF77394046F01007394305E04FF65F7783
:1035B000394044F01007394302830184F0BD000014
:1035C000002C01400034014000040040000800408D
:1035D000000C0040F0B50C461546002200210026E4
:1035E000078C4FF6FF6C07EA0C070784828B018C6F
:1035F0004FF6FF7707EA04264FF60C773A404FF66E
:10360000FF7707EA03172F433A43114FB8420ED012
:10361000104FB8420BD0B0F1804F08D00E4FB842D7
:1036200005D00E4FB84202D00D4FB84206D14FF62A
:10363000FF57394046F48077394305E04FF2FF5792
:10364000394044F48077394382830184F0BD00001F
:10365000002C0140003401400004004000080040FC
:10366000000C0040F0B50C46154600220021002653
:10367000078C4EF6FF7C07EA0C070784828B018CCF
:103680004FF6FF7707EA043640F6FF473A404FF619
:10369000FF7707EA05273A434FF6FF7707EA033734
:1036A0003A43114FB8420ED0104FB8420BD0B0F190
:1036B000804F08D00E4FB84205D00E4FB84202D00E
:1036C0000D4FB84206D14DF6FF77394046F480578A
:1036D000394305E047F6FF57394044F480573943F2
:1036E00082830184F0BD0000002C014000340140C1
:1036F0000004004000080040000C00404FF08040F3
:10370000008A4FF08040008A20F001004FF0804195
:1037100008827047044800880348008820F00100B0
:1037200001490880704700001008004021B102885C
:1037300042F08002028004E002884FF67F731A4054
:1037400002807047CA430282704721B1028842F06A
:103750000102028004E002884FF6FE731A400280E4
:10376000704731B1B0F8442042F40042A0F8442040
:1037700005E0B0F84420C2F30E02A0F844207047E0
:10378000F0B50C4615461E46002100220023018993
:10379000028B038C4FF6F877394021434FF6FC47F4
:1037A0003A4040F201173A434FF6DD773B404FF67F
:1037B000FF7707EA06172F433B4301810283038407
:1037C000F0BD000070B505460C46244885420ED079
:1037D000234885420BD0B5F1804F08D0214885425F
:1037E00005D02148854202D02048854200D100E022
:1037F00000BF208850B92389A28861882846FFF736
:103800005DFEE188284600F0F1F825E020880428D4
:103810000AD12389A28861882846FFF78FFEE188B4
:10382000284600F0ECF817E0208808280AD1238900
:10383000A28861882846FFF7CDFEE188284600F07F
:10384000EBF809E02389A28861882846FFF70AFF80
:10385000E188284600F0E9F870BD0000002C014026
:10386000003401400004004000080040000C00400B
:10387000002101804180012181800021C1800181DE
:1038800070471AB183890B43838102E083898B439C
:103890008381704770B5002400220023058C4FF609
:1038A000FF6635400584028C8388848B4FF68F75C4
:1038B0002C404FF6FC752C400D882C434FF6FF55DD
:1038C0002A400D894FF6FF7606EA05252A434D88E2
:1038D00006EA05252A43154DA84202D0144DA842F8
:1038E0001DD14FF2FF752A404D894FF6FF7606EA4B
:1038F00005252A434FF6FF352A408D8806EA05251F
:103900002A434EF6FF752B404DF6FF752B408D89EF
:1039100006EA05152B43CD8906EA05152B4383805E
:103920008483CD888587028470BD0000002C01400F
:10393000003401400A460021818B4FF6F77319408D
:10394000114381837047000070B5002200230024DA
:10395000058C4EF6FF7635400584038C8488828B77
:1039600048F6FF752A404FF6FF452A400D884FF66E
:10397000FF7606EA05252A434DF6FF752B400D8993
:1039800006EA05352B434D8806EA05352B430B4DDA
:10399000A84202D00A4DA84208D14BF6FF752C4030
:1039A0008D894FF6FF7606EA85152C438480828345
:1039B000CD88A0F84050038470BD0000002C014069
:1039C000003401400A460021818B4FF2FF731940F9
:1039D0004FF6FF7303EA02231943818370478187FF
:1039E0007047A0F84010704781847047028B4FF6F3
:1039F000F3731A400283028B0A4302837047028BDF
:103A00004FF2FF331A400283028B4FF6FF7303EA33
:103A100001231A4302837047828B4FF6F3731A40D7
:103A20008283828B0A4382837047828B4FF2FF33FB
:103A30001A408283828B4FF6FF7303EA01231A43F5
:103A400082837047002202881D4B98420ED01D4B86
:103A500098420BD0B0F1804F08D01B4B984205D054
:103A60001A4B984202D01A4B984204D14FF68F73EA
:103A70001A404B881A43174B984207D0164B98426E
:103A800004D04FF6FF431A40CB881A4302808B883C
:103A900083850B8803850A4B98420BD0094B9842CB
:103AA00008D00E4B984205D00D4B984202D00D4BDA
:103AB000984201D10B7A038601238382704700006C
:103AC000002C014000340140000400400008004088
:103AD000000C004000100040001400400040014075
:103AE00000440140004801404FF6FF7181800021F1
:103AF0000180C180418001727047000010B588B01C
:103B00000024102346A208210020FFF73DF80022E0
:103B10000221052004F0E4FD4549086008460068DC
:103B200010B9002008B010BD04F0EAFC414908605B
:103B30000846006808B90020F4E73F480221002346
:103B40006422CDE900103DA13E4804F0A7FF2146C4
:103B5000621C54B202AA42F821003B480221002311
:103B60006422CDE9001039A13A4804F097FF2146BC
:103B7000621C54B202AA42F82100374803210023F4
:103B8000C822CDE9001035A1374804F087FF21464F
:103B9000621C54B202AA42F82100344803210023D7
:103BA000C822CDE9001032A1344804F077FF214645
:103BB000621C54B202AA42F82100314805210023B8
:103BC0004FF4FA72CDE900102EA1324804F066FFDE
:103BD00001462046621C54B202AA42F820102E4828
:103BE000042100234FF49672CDE900102BA12E483A
:103BF00004F054FF2146621C54B202AA42F821008C
:103C000009E0601E40B2044602A951F820000128D4
:103C100001D0002086E7002CF3DC012082E70000C1
:103C20005461736B20696E69742E2E2E00000000A3
:103C30004400002040000020480000204C656454EF
:103C400061736B00A97D00084C000020526762542C
:103C500061736B00E57F0008500000204F6C6564C5
:103C60005461736B00000000517E00085400002076
:103C700052656D6F74655461736B0000BD7F000801
:103C80003C0000207642616C616E63655461736B29
:103C900000000000517C0008580000207653706539
:103CA00065645461736B00003580000810B540F204
:103CB0002551044800F039F818B10248001D008869
:103CC000C4B210BD0038014008B540F22551084883
:103CD00000F02BF858B10648001D0088C0B20090D3
:103CE00000231A4669460348006804F0DFFD08BD5A
:103CF000004800404400002021B1828942F4005273
:103D0000828104E082894DF6FF731A4082817047F8
:103D100002460020B1F5007F00D100BF13880B40A0
:103D20000BB1012000E00020704770B5024600246E
:103D300000230025002040F66A16B14200D100BFE2
:103D4000C1F3421501F01F03012606FA03F3012D0A
:103D500002D19689334006E0022D02D1168A334003
:103D600001E0968A33400C12012606FA04F4168804
:103D7000344013B10CB1012000E0002070BDF0B55B
:103D80000346002400260025002040F66A17B942A9
:103D900000D100BF1846C1F3421401F01F060127ED
:103DA00007FA06F5012C01D10C3004E0022C01D1F8
:103DB000103000E014301AB107682F43076002E0AA
:103DC0000768AF430760F0BD2DE9F04786B00546B0
:103DD0000E460024A24600BFA1460027B08900B1CC
:103DE00000BF2F462C8A4CF6FF700440F088044335
:103DF0002C82AC894EF6F3100440B0883189084318
:103E0000718908430443AC81AC8A4FF6FF400440FB
:103E1000B0890443AC8201A8FFF730F81F488742FD
:103E200002D1DDF810A001E0DDF80CA0A88900F4B3
:103E3000004040B10AEBCA0000EB0A1031684900AB
:103E4000B0FBF1F807E00AEBCA0000EB0A1031689A
:103E50008900B0FBF1F86420B8FBF0F00401200900
:103E6000642101FB1089A88900F4004040B1322090
:103E700000EBC900B0FBF1F000F00700044308E0DC
:103E8000322000EB09106421B0FBF1F000F00F00CC
:103E900004432C8106B0BDE8F087000000380140E3
:103EA000C1F308028280704710B586B00446012134
:103EB00044F20400FEF7ACFF4FF40070ADF81400BC
:103EC00003208DF8160018208DF8170005A91D484D
:103ED000FEF758F84FF48060ADF8140004208DF818
:103EE000170005A91748FEF74DF825208DF80000AA
:103EF00002208DF8010000208DF8020001208DF8CD
:103F000003006846FEF73EFD01940020ADF808006E
:103F1000ADF80A00ADF80C00ADF810000C20ADF8BB
:103F20000E0001A90848FFF74FFF012240F225517A
:103F30000548FFF724FF01210348FFF7DDFE06B027
:103F400010BD0000000801400038014010B586B0E7
:103F5000044601210820FEF75BFF01218804FEF7DB
:103F600047FF4FF48060ADF8140003208DF8160071
:103F700018208DF8170005A91C48FEF703F84FF428
:103F80000060ADF8140004208DF8170005A917484B
:103F9000FDF7F8FF27208DF8000002208DF80100C2
:103FA00001208DF802008DF803006846FEF7EAFC58
:103FB00001940020ADF80800ADF80A00ADF80C003F
:103FC000ADF810000C20ADF80E0001A90848FFF76D
:103FD000FBFE012240F225510548FFF7D0FE0121EA
:103FE0000348FFF789FE06B010BD0000000C014039
:103FF0000048004000BFFEE710B50424E101084876
:10400000FEF796F800BF4FF400710548FEF78EF8F2
:1040100000E000BF201EA4F10101CCB2F9D110BD17
:10402000000C014070B5032503244FF400710B48C8
:10403000FEF77EF800E000BF281EA5F10101CDB219
:10404000F9D14FF400710548FEF770F800E000BFA9
:10405000201EA4F10101CCB2F9D170BD000C0140C9
:10406000490050EAC12018BF04204A0D18BF40F093
:10407000010040F2FF72B2EB515F08BF40F0020056
:10408000012808BF052070472DE9F0414F1E00EBC5
:10409000C7010446D1E9000115461E4637F0060265
:1040A0000DD02A46334605F0FBF97F1E04EBC7030B
:1040B000D3E9002304F0A4FF37F00602F1D1022F68
:1040C00025D0042F13D0062F18BFBDE8F0812A4653
:1040D000334605F0E5F9D4E90A2304F091FF2A46B6
:1040E000334605F0DDF9D4E9082304F089FF2A46B8
:1040F000334605F0D5F9D4E9062304F081FF2A46BA
:10410000334605F0CDF9D4E9042304F079FF2A46BB
:10411000334605F0C5F9D4E9022304F071FF2A46BD
:10412000334605F0BDF9D4E90023BDE8F04104F0C1
:1041300067BF012206F06BB804F062BF002213468D
:104140001046114605F018B8024A0020110706F083
:104150005EB8000001FDFFFF30380A2801D20120BF
:1041600070470020704770472DE9FE4F074688468C
:104170000026684601F0BAF9002444E057F824000C
:1041800058F82410A0EB010ABAF1000F01DB5146E8
:1041900001E0CAF10001084605F028FE83464FF011
:1041A0008F4105F0F1FC81465DF82400002105F007
:1041B000ADFD18D05DF82410484605F0E5FC8246B8
:1041C0004FF07E5105F07AFF054600BF25F0004014
:1041D00082460F48416A504605F034FF12D2012052
:1041E000A04006430EE00A48C169484605F02AFE91
:1041F00005D30748016A484605F024FF02D2012092
:10420000A0400643641C032CB8DB3046BDE8FE8F9B
:10421000DCAA00082DE9F04D8D4F21F0004A86B050
:1042200005460C46BA452ADBAAEB070028430AD00C
:104230008848824501DC1AD1CDB106B02846BDE8D8
:10424000F04DFFF776BF844A844B284605F028F9E5
:1042500007460E46824A834B2846214605F020F940
:1042600006B03A463346BDE8F04D04F0C9BE012021
:10427000FCF765FA06B0BDE8F04DFFF75FBF7A487E
:10428000824542DABAF1795F0BDA2846FFF7E8FE99
:10429000042808BFFFF758FF284606B02146BDE8AE
:1042A000F08D2A460B46104605F0FAF88346024682
:1042B0006E480E460B4606217844FFF7E5FE5A4647
:1042C000334605F0EDF8804669488A465A4633463B
:1042D00004217844FFF7D8FE5A46334605F0E0F84B
:1042E00000223B4604F08CFE02460B4640465146F7
:1042F00004F042FF2A46234605F0D2F806B02A46CB
:104300002346BDE8F04D04F07BBE284624F0004172
:1043100000223D463B4605F0C1F94FF0FF3205F063
:1043200076FF0646024653480F460B460621784460
:10433000FFF7AAFE32463B4605F0B2F8CDE9000190
:104340004D4832463B4604217844FFF79DFE3246F5
:104350003B4605F0A5F800222B4604F051FE8346AB
:1043600002913046394603F0DDFB804643480D4656
:10437000504517DCDDE900015A46029B04F0FCFEC3
:1043800042462B4605F08CF842462B4604F038FE98
:10439000012205F03CFF304A304B05F071FA304AFB
:1043A000304B4CE04FF0000A52460B46404604F0BA
:1043B00027FECDE9031052462B461046194605F05C
:1043C0006FF832463B4605F069F9DDE9033204F047
:1043D000D3FE06460F46DDE900015A46029B04F073
:1043E000CBFE8346009101223046394605F00FFF8F
:1043F000194A1A4B05F052F906460F46012240466B
:10440000294605F004FF5A46009B05F049F832465C
:104410003B4605F035FA06460F460122504629462E
:1044200005F0F5FE0E4DDFF858802A46434605F0AC
:1044300035F932463B4605F031F92A46434605F048
:104440002DF9002CD8BF81F0004106B0BDE8F08DF9
:104450000000F03F0000F07F075C143326A6913C7B
:10446000182D4454FB21F93F0000E03F5474000034
:104470006A740000DE730000F47300003333EF3F12
:10448000FB21E93F2DE9F84F04460D4621F000409D
:1044900000917349814211DC7249884201DC06D1E6
:1044A0002CB120462946BDE8F84FFFF742BE6E48C2
:1044B000002DCCBF6D496E49BDE8F88F6D49814232
:1044C00011DD6D498142D8BF4FF0FF366DDD2046CA
:1044D0002946FFF7C5FD042808BFFFF735FE204633
:1044E0002946BDE8F88F6549654F25F000458142B2
:1044F00033DD6449814219DD002632464FF08043A6
:104500002046294604F07CFD80468A46012220464A
:10451000294605F07CFE00223B4605F0B1F94246F3
:10452000534604F029FE04460D463EE001260022D3
:10453000BA463B462046294604F062FD80460F46B7
:10454000002253462046294605F09AF942463B464A
:1045500004F012FE04460D4627E04B4981421BDD64
:10456000DFF828A10226002253462046294604F0FF
:1045700097FF00223B4604F043FD80460F46002291
:1045800053462046294605F07BF942463B4604F057
:10459000F3FD04460D4608E0032622462B46002084
:1045A0003B4904F0E9FD04460D4622462B461046E1
:1045B000194604F075FF8B46824602460B4604F00E
:1045C0006FFF07460246334888460B46062178446B
:1045D000FFF75AFD52465B4604F062FF82462E48C2
:1045E0008B463A46434605217844FFF74DFD3A464F
:1045F000434604F055FF02460B46002E50465946EE
:104600000CDA04F0FDFC22462B4604F049FF01B011
:1046100022462B46BDE8F04F05F040B804F0F0FC10
:1046200022462B4604F03CFF1C4A7A4402EBC603A8
:10463000D3E9002305F024F922462B4605F020F9A2
:10464000174A7A4402EBC603D3E9002305F026F8A3
:10465000009A002AB8BF81F00041BDE8F88F000041
:10466000000010440000F07F182D4454FB21F93F56
:10467000FB21F9BF0000DC3F0000203E0000F33FBB
:104680000000F03F0000E63F008003400000F83FDC
:104690000000F0BFF6710000B4710000527100001C
:1046A0001A7100002DE9F04D9446CCF1000423F07E
:1046B00000464CEA0404594F46EAD4749A468846A8
:1046C00021F00042BC4206D8454240EA050442EAD5
:1046D000D474BC4204D9BDE8F04D6246FFF72CBD4E
:1046E000AAF14055A5F17F6555EA0C040BD00224D0
:1046F00004EAAA744A4DDFF82CE144EAD87452EA7D
:10470000000B04D00CE0BDE8F04DFFF7BBBE002C61
:1047100014BF012CBDE8F08D022C30D0032C32D018
:1047200056EA0C0B0AD0BE4220D1BA4209D126F07B
:10473000804622F080423346114617E000291ADBFA
:1047400025E0DFF8E4B0FB44002C04BFDBE9000106
:10475000BDE8F08D012C02BFDBE9000181F00041D2
:10476000BDE8F08D022C0AD0032C0CD0BA4212D135
:10477000B8F1000F0BDA2A482C49BDE8F08D284625
:104780002B49BDE8F08D28467146BDE8F08D2448E0
:104790002849BDE8F08D921B12153C2AC4BF204F5A
:1047A000244E10DCBAF1000FBEBF12F13C0F0027FF
:1047B0003E4608DB624604F0DFFC21F00041FFF7D3
:1047C00061FE07460E4694B1012C08BF86F00046F4
:1047D0000DD0194A194B022C3846314615D005F038
:1047E0004FF82A46BDE8F04D114B05F049B80022BC
:1047F00013463846314604F017FE04BF0220FBF78B
:104800009EFF38463146BDE8F08D05F039F82A465E
:10481000BDE8F04D064B04F041BF00000000F07F02
:10482000182D4454FB2109C0AE700000FB21F9BFD4
:10483000FB210940FB21F93F075C143326A6A13C6C
:104840002DE9F0410446E07800F0C006E07800F081
:104850003F05607800F0010098B1EF102846E91795
:1048600005EB5171C910A5EBC101491C01F0FF080E
:104870000B48006820B10A48414602683846904714
:1048800000BF607800F0080030B10548406818B1FA
:10489000B011034A516888470020BDE8F08100004C
:1048A00018040020F0B5034600224FF0E026756999
:1048B0000F4E36680F4FB6FBF7F606FB03F44FF0CA
:1048C000E026B16910E04FF0E026B06988420BD0D5
:1048D000884202D20E1A324402E02E1A0E443244AA
:1048E0000146A24200D300E0EDE700BFF0BD0000AA
:1048F0001400002040420F0038B5044664B1202067
:104900008DF8000028208DF8010030208DF802007D
:1049100038208DF8030004E0A32204216846FBF749
:1049200086FE6A46042140F69E2002F04DFA01F010
:1049300037FE38BD3EB5044602208DF80000CA207F
:104940008DF80100E3208DF8020009208DF80300A6
:104950006A460421682002F037FAA3208DF800008F
:1049600004F0400048B1C0208DF80100C8208DF847
:104970000200C2208DF8030006E0A3208DF801009C
:104980008DF802008DF8030004F4C07048B1C42013
:104990008DF80400CC208DF80500C6208DF80600A7
:1049A00006E0A3208DF804008DF805008DF80600C0
:1049B000A3208DF807008DF808008DF809006A46DD
:1049C0000A2140F6A72002F0FFF904F0030018B115
:1049D00020208DF8000002E0D8208DF800006A4603
:1049E000012140F6B62002F0EFF904F0200018B1E2
:1049F000012000F0ADF802E0002000F0A9F804F476
:104A0000C07008B304F4807060B1B2208DF800006B
:104A10008B208DF80100B6208DF802009B208DF8C8
:104A200003000BE0B0208DF8000080208DF801001D
:104A3000B4208DF8020090208DF803006A4604210E
:104A400040F6A22002F0C0F904F0010020B3F820E3
:104A50008DF800006A4601214FF40B6002F0B4F9B2
:104A6000FA21072000F02CFC072000F0F3FB0120C6
:104A700000F013FC642000F0F3FC4FF4FA7000F037
:104A800002FDC821304800F0A3FB282000F0BCFB49
:104A90000A2000F0CCFB08E0D8208DF800006A4620
:104AA00001214FF40B6002F08FF904F0020018B1FD
:104AB000D9208DF8000002E0D8208DF800006A4669
:104AC000012140F23D7002F07FF904F0040018B1BA
:104AD000012000F069F802E0002000F065F804F021
:104AE000100018B10120FFF707FF02E00020FFF7D8
:104AF00003FF44F008001549488101F051FD0020F2
:104B00001249887304F0400018B10846807B801D6C
:104B1000887304F4C07020B10C48807B801D0B4961
:104B2000887304F0140020B10848807B10300749D6
:104B3000887304F0030020B10448807B001D034902
:104B4000887300203EBD000009E3CA02180400205B
:104B50003EB504466CB10EA1D1E900208968CDE9CB
:104B6000002002916A4609214FF4976002F02CF967
:104B70003EBD0AA2D2E900109268CDE9010200917F
:104B80006A4609214FF4976002F01EF9F0E7000031
:104B9000B8AAB38DB4980D355D000000B8AAAAAAD2
:104BA000B088C3C5C700000038B5044664B1C02052
:104BB0008DF80000C2208DF80100C4208DF802009D
:104BC000C6208DF8030004E08B2204216846FBF721
:104BD0002EFD6A46042140F6982002F0F5F801F017
:104BE000DFFC38BD10B5C8234FF48062024940F69F
:104BF000F63001F069FB10BD04AB00082DE9F04F61
:104C00008DB00746884615469946DDE9166B0024A7
:104C1000002030806B49887B5A4605A901F020FCB2
:104C200018B1601E0DB0BDE8F08F6648807A00F0C4
:104C30001400002867D09DF8140000069DF8151098
:104C400040EA01409DF8161040EA01209DF8171037
:104C5000084328609DF8180000069DF8191040EAE6
:104C600001409DF81A1040EA01209DF81B100843EE
:104C700068609DF81C0000069DF81D1040EA014088
:104C80009DF81E1040EA01209DF81F100843A860FF
:104C90009DF8200000069DF8211040EA01409DF893
:104CA000221040EA01209DF823100843E86004F137
:104CB0001000C4B2286800140190686800140290C3
:104CC000A86800140390E868001404900198404319
:104CD000029901FB0100039901FB0100049901FB0A
:104CE000010ABAF1706F02DBBAF1885F05DD01F0ED
:104CF00057FC00203080401E94E7B6F9000040F4D5
:104D00008070308000BF2F48807A00F0400020B3D0
:104D100005A9601C085C095D40EA012000B2A8F802
:104D2000000005A9E01C095C05AAA01C105C41EA72
:104D3000002000B2A8F8020005A9601D095C201D32
:104D4000105C41EA002000B2A8F80400A01DC4B223
:104D5000B6F9000040F0080030801A48408900F49D
:104D6000C07008B305A9601C085C095D40EA012019
:104D700000B2388005A9E01C095C05AAA01C105CE3
:104D800041EA002000B2788005A9601D095C201D61
:104D9000105C41EA002000B2B880A01DC4B2B6F990
:104DA000000040F0700030800648807A00F0030078
:104DB00018B105A90819FFF743FD484600F01AFF8E
:104DC00000202FE71804002070B588B0064601A81F
:104DD00001F0CEF8BDF804000021C90341EA5045B6
:104DE000C4034448007A00F0030056F82000059000
:104DF0004048007A00F0040010B105984042059048
:104E00003C48007AC0F3C10056F8200006903948AB
:104E1000007A00F0200010B1069840420690354814
:104E2000007AC0F3811056F82000079031480089BD
:104E300000F4807010B10798404207900598C117A0
:104E4000A0FB042301FB043100FB0510810041EAB3
:104E5000927005900698C117A0FB042301FB043152
:104E600000FB0510810041EA927006900798C11777
:104E7000A0FB042301FB043100FB0510810041EA83
:104E8000927007900598000E8DF808000598000CA8
:104E90008DF809000598000A8DF80A000598C0B23F
:104EA0008DF80B000698000E8DF80C000698000C8B
:104EB0008DF80D000698000A8DF80E000698C0B215
:104EC0008DF80F000798000E8DF810000798000C61
:104ED0008DF811000798000A8DF812000798C0B2EB
:104EE0008DF8130002AA0C214FF4257001F06CFF1D
:104EF00008B070BD1804002030B585B0044616A275
:104F000007CA02AB07C3C82C03DD4FF0FF3005B062
:104F100030BDC82090FBF4F0401E85B2280A8DF801
:104F20000000E8B28DF801006A46022140F2162026
:104F300001F04AFF10B14FF0FF30E8E702AA0C2160
:104F400040F6C12001F040FF10B14FF0FF30DEE726
:104F5000044884810020DAE7FEF2ABC4AAF1DFDF67
:104F6000BBAFDFDF180400201FB504464848007AB5
:104F700000F0030054F8200001904548007A00F04A
:104F8000040010B10198404201904148007AC0F3FA
:104F9000C10054F8200002903D48007A00F0200043
:104FA00010B10298404202903948007AC0F3811053
:104FB00054F8200003903648008900F4807010B146
:104FC0000398404203903349019880FB0101800F10
:104FD00040EA810001902F49029880FB0110820075
:104FE00042EA917002902B49039880FB01108200E5
:104FF00042EA917003900198000E8DF8000001982C
:10500000000C8DF801000198000A8DF8020001984B
:10501000C0B28DF803006A4604214FF4747001F0A9
:10502000D3FE18B14FF0FF3004B010BD0298000E4F
:105030008DF800000298000C8DF801000298000A1B
:105040008DF802000298C0B28DF803006A46042170
:105050004FF4757001F0B8FE10B14FF0FF30E3E788
:105060000398000E8DF800000398000C8DF80100E5
:105070000398000A8DF802000398C0B28DF803006F
:105080006A4604214FF4767001F09EFECCE70000E2
:105090001804002009E3CA0210B586B0044647A0F0
:1050A0000068039046A00068029046A00068019046
:1050B00045A00068009004F0030003A9085C8DF887
:1050C000140003A8C4F3C101405C8DF8150003A8C7
:1050D000C4F38111405C8DF8160004F0030002A9AE
:1050E000085C8DF8100002A8C4F3C101405C8DF883
:1050F000110002A8C4F38111405C8DF8120005AACA
:10510000032140F2264001F05FFE18B14FF0FF305E
:1051100006B010BD04AA032140F22A4001F054FE5B
:1051200010B14FF0FF30F3E701980590009804901C
:1051300004F0040058B19DF8140040F001008DF80F
:1051400014009DF8100040F001008DF8100004F0EC
:10515000200058B19DF8150040F001008DF81500B1
:105160009DF8110040F001008DF8110004F48070EA
:1051700058B19DF8160040F001008DF816009DF81A
:10518000120040F001008DF8120005AA03214FF42F
:10519000886001F019FE10B14FF0FF30B8E704AAA3
:1051A000032140F2314001F00FFE10B14FF0FF300B
:1051B000AEE7064804810020AAE700004CCD6C0051
:1051C0000CC92C00365676002646660018040020CE
:1051D000F8B505460E464FF47A7095FBF0F000FBEB
:1051E00006F4200E8DF80000200C8DF80100200A36
:1051F0008DF80200E0B28DF803006A4604214FF4F6
:10520000AE7001F0E1FDF8BD38B50446052094FB11
:10521000F0F084B220128DF80000E0B28DF80100A9
:105220006A4602214FF4AD7001F0CEFD38BD38B5AD
:105230000446052094FBF0F084B220128DF80000A3
:10524000E0B28DF801006A4602214FF4AC7001F023
:10525000BBFD38BD38B504460020009004F00100C5
:1052600020B19DF8000040F03000009004F00200F2
:1052700020B19DF8000040F00C00009004F0040004
:1052800020B19DF8000040F0030000906A46012123
:105290004FF4A47001F098FD38BD38B50446012CD8
:1052A00001DA012402E0042C00DD0424601EC0B2F7
:1052B00000906A46012140F24F1001F085FD38BD93
:1052C0002DE9FC4706460F4606F0070010B1B7F57A
:1052D000C86F03DD4FF0FF30BDE8FC87384604F0AF
:1052E0009DFD8146594904F04FFC8046684600F018
:1052F00019FE9DF80000022806D0042816D00828C0
:1053000026D0102848D135E04FF08D41404604F0BA
:10531000CDFD814604F04AFD84B24D49404604F07B
:10532000C5FD814604F042FD85B238E04FF08C4166
:10533000404604F0BBFD814604F038FD84B2454987
:10534000404604F0B3FD814604F030FD85B226E00E
:105350004FF08B41404604F0A9FD814604F026FD44
:1053600084B23D49404604F0A1FD814604F01EFD93
:1053700085B214E04FF08A41404604F097FD814623
:1053800004F014FD84B23549404604F08FFD814697
:1053900004F00CFD85B202E04FF0FF309CE700BF47
:1053A00020128DF80400E0B28DF8050028128DF867
:1053B0000600E8B28DF8070006F00100A0B101AACE
:1053C00002214FF4EA7001F0FFFC10B14FF0FF3002
:1053D00082E70DF1060202214FF4927001F0F4FC15
:1053E00010B14FF0FF3077E706F00200A0B101AA3C
:1053F00002214FF4EC7001F0E7FC10B14FF0FF30E8
:105400006AE70DF1060202214FF4947001F0DCFC12
:1054100010B14FF0FF305FE706F00400A0B101AA21
:1054200002214FF4EE7001F0CFFC10B14FF0FF30CD
:1054300052E70DF1060202214FF4967001F0C4FC10
:1054400010B14FF0FF3047E7002045E70000484328
:10545000000040460000C045000040450000C04438
:1054600038B50446052094FBF0F085B228128DF87B
:105470000000E8B28DF801006A4602214FF4EF7097
:1054800001F0A2FC38BD38B50446052094FBF0F0CD
:1054900085B228128DF80000E8B28DF801006A4646
:1054A00002214FF4ED7001F08FFC38BD70B5044659
:1054B0000D4600BF80210548FEF72AFC0028F9D0E0
:1054C000A1B20248FEF7ECFC204670BD0038014056
:1054D00070B504460D460220FDF78AFE20800420A8
:1054E000FDF786FE404200B2288070BD7CB50546BF
:1054F00028494968087801AB04220D21FDF706F917
:1055000008B107207CBD9DF80700C0F301109DF88D
:10551000041001F0E00140EAE1008DF800009DF880
:105520000700C0F381009DF8051001F0E00140EA9A
:10553000E1008DF801009DF8070000F003009DF8E0
:10554000061001F0E00140EAE1008DF802000024BD
:105550001CE01DF8040018B9002045F8240013E0F1
:105560000D4845F8240006E055F824000B4904F0E6
:105570009DFC45F824001DF80400401EC0B20DF843
:1055800004000028F0D100BF601CC4B2032CE0DB93
:105590000020B7E7400200207B14AE3E1D5A843F36
:1055A0002DE9F04F87B005460C46914601208DF855
:1055B000100000208DF81100FE4A1268917CFD4A0F
:1055C0005268107804AB0222FDF746F920B14FF083
:1055D000FF3007B0BDE8F08FC82002F0BFFD00200B
:1055E0008DF81000F34A1268D17BF24A52681078A5
:1055F00004AB0122FDF730F910B14FF0FF30E8E7BE
:10560000EC4A12685179EB4A5268107804AB0122D7
:10561000FDF722F910B14FF0FF30DAE7E54A1268E2
:10562000917CE44A5268107804AB0122FDF714F92A
:1056300010B14FF0FF30CCE7DE4A1268D17DDD4A71
:105640005268107804AB0122FDF706F910B14FF053
:10565000FF30BEE7D74A12681179D64A52681078EF
:1056600004AB0122FDF7F8F810B14FF0FF30B0E7BE
:105670000C208DF81000CF4A12681179CD4A52687B
:10568000107804AB0122FDF7E7F810B14FF0FF30BE
:105690009FE70F2002F062FDC648806A407A8DF8CD
:1056A0001000C44A12689178C24A5268107804AB5C
:1056B0000122FDF7D1F810B14FF0FF3089E7BD4866
:1056C000806A007A8DF81000BA4A12685178B94A97
:1056D0005268107804AB0122FDF7BEF810B14FF00C
:1056E000FF3076E7B9F1000F07D0B248806A807AC0
:1056F00040F0E0008DF8100004E0AE48806A807A47
:105700008DF81000AB4A12689179AA4A5268107855
:1057100004AB0122FDF7A0F810B14FF0FF3058E7BD
:10572000B9F1000F07D0A348806AC07A40F0E000CA
:105730008DF8100003E0A048C07A8DF810009D4A53
:105740001268D1799B4A5268107804AB0122FDF7A8
:1057500083F810B14FF0FF303BE7B9F1000F02D0F2
:10576000C82002F0FBFC40208DF81000914A12681E
:105770001179904A5268107804AB0122FDF76CF859
:1057800010B14FF0FF3024E778208DF81000894ADF
:1057900012685179874A5268107804AB0122FDF7EC
:1057A0005BF810B14FF0FF3013E7834880894FF466
:1057B0007A714843B0FBF1F7384602F0CFFC002085
:1057C0008DF810007B4A126851797A4A5268107835
:1057D00004AB0122FDF740F810B14FF0FF30F8E6BE
:1057E000744A1268917A734A5268107804AB0222A4
:1057F000FCF78CFF10B14FF0FF30EAE69DF8110086
:105800009DF8101040EA012B0C209BFBF0F0C6B273
:105810000020A86068602860A06060602060824608
:1058200065E0644A1268D17A624A5268107804AB23
:105830000C22FCF76BFF10B14FF0FF30C9E69DF86A
:1058400011009DF8101040EA012000B2ADF80800E8
:105850009DF813009DF8121040EA012000B2ADF847
:105860000A009DF815009DF8141040EA012000B2CE
:10587000ADF80C00BDF90810206808442060BDF99F
:105880000A10606808446060BDF90C10A068084404
:10589000A0609DF817009DF8161040EA012000B2A4
:1058A000ADF800009DF819009DF8181040EA01209D
:1058B00000B2ADF802009DF81B009DF81A1040EAF6
:1058C000012000B2ADF80400BDF9001028680844BA
:1058D0002860BDF90210686808446860BDF90410CA
:1058E000A8680844A8600AF1010000F0FF0AB24568
:1058F00097DB3148D0F800C02868C117090441EA95
:1059000010410704624600233846FAF7DAFC3246B3
:105910000023CDE90201FAF7D4FC28602648D0F82C
:1059200000C06868C117090441EA104107046246D3
:1059300000233846FAF7C5FC32460023CDE90201C0
:10594000FAF7BFFC68601C48D0F800C0A868C1170F
:10595000090441EA10410704624600233846FAF779
:10596000B0FC32460023CDE90201FAF7AAFCA86098
:105970001148D0F804C02068C117090441EA104159
:105980000704624600233846FAF79BFC32460023A0
:10599000CDE90201FAF795FC20600748D0F804C071
:1059A0006068C117090441EA1041070462460023F8
:1059B000384603E040020020DCAA0008FAF781FC28
:1059C00032460023CDE90201FAF77BFC6060114802
:1059D000D0F804C0A068C117090441EA10410704C7
:1059E000624600233846FAF76CFC32460023CDE9C4
:1059F0000201FAF766FCA060A068002804DDA06838
:105A0000A0F58030A06003E0A06800F58030A060C1
:105A10000020DEE5DCAA00082DE9FC5F0746884689
:105A200000263F494968087801AB03220D21FCF7A5
:105A30006DFE10B10720BDE8FC9F9DF8040000F04A
:105A40001F008DF804009DF8050000F01F008DF880
:105A500005009DF8060000F01F008DF806000024E8
:105A600059E057F8240058F82410A0EB010BBBF1C3
:105A7000000F01DB594601E0CBF10001084604F0BC
:105A8000B5F94FF08F41009004F07EF8824601A8EE
:105A9000005D78B32349086804F0C0F9834659468D
:105AA000214804F071F8814604E02049484604F09A
:105AB000FDF9814601A8005D401EC0B201A908554C
:105AC0000028F2D14946504604F05EF883464FF074
:105AD0007E5104F0F3FA054600BF25F000408346EE
