:020000040800F2
:10000000D8060020050100080B190008311200086D
:1000100091180008CD0E0008712C000800000000A7
:10002000000000000000000000000000DF1F0008CA
:10003000D10E000800000000111D0008B1210008C9
:100040001F0100081F0100081F0100081F01000810
:100050001F0100081F0100081F0100081F01000800
:100060001F0100081F0100081F0100081F010008F0
:100070001F0100081F0100081F0100081F010008E0
:100080001F0100081F0100081F0100081F010008D0
:100090001F0100081F0100081F010008D50E0008FD
:1000A0001F0100081F0100081F0100081F010008B0
:1000B000552400081F0100086D2400081F010008D6
:1000C0001F0100081F0100081F0100081F01000890
:1000D0001F010008052900081F0100082D2900083C
:1000E0001F0100081F0100081F010008DFF810D0E1
:1000F00000F04EFC00480047694D0008AFF3008057
:10010000D80600200648804706480047FEE7FEE77D
:10011000FEE7FEE7FEE7FEE7FEE7FEE7FEE7FEE7B7
:10012000B5210008ED0000082DE9F0410024061B70
:10013000254671F1000605DA01240027D0EB0700FF
:1001400067EB0101161E73F1000605DA0027D2EBFA
:100150000702012567EB030300F004FB86460E4609
:1001600017469C46AC4204D00025D0EB050E65EB4B
:10017000010624B10020D2EB000760EB030C7046AF
:1001800031463A466346BDE8F081D2B201E000F85C
:10019000012B491EFBD270470022F6E710B513462B
:1001A0000A4604461946FFF7F0FF204610BD30B559
:1001B00004460020034600E05B1C934203D2E05C4F
:1001C000CD5C401BF8D030BDF0B480EA0102D40F02
:1001D0004200B2EB410F02D20246084611464A00E5
:1001E00042D0C30DDDB2C1F3C752AD1A202D35DAAE
:1001F000C1F3160141F4000204B15242C5F12006D8
:1002000002FA06F12A411044B3EBD05F23D0C4B107
:10021000012DA0EBC35009DCF0BC4FF0004202EA14
:10022000C352DBB200F5000000F0F7BA400000F165
:10023000807000EBC350A0F1807040EAD17049009B
:1002400009E0490841EAC071A0EBC35000F5000085
:10025000400800EBC350F0BC00F0D6BA6142012266
:1002600002EB4101001BF6E7F0BC704781F0004152
:10027000AAE780F00040A7E780EA010210B502F08B
:100280000043400022D04A001FD0010E01EB126152
:10029000C0F35600C2F3560240F4000042F40002DC
:1002A000A0FB022000047F39140400D0401C50EA57
:1002B000124001D44000491EC2B20C0604EBD0101B
:1002C000401C4008802A02D003E0002010BD20F02E
:1002D0000100002900DA0020184310BD30B480EA84
:1002E000010202F0004530F0004221F0004013D03E
:1002F00090B1C30DD40DC2F31601C0F31600E41A79
:1003000041F4000140F400027D34914201D3641CA9
:1003100000E04900002C02DA30BC002070474FF4A6
:1003200000000023914201D3891A034340084FEA99
:100330004101F7D151B1914202D14FF0004105E0A6
:1003400002D24FF0010101E06FF0010103EBC45054
:10035000284430BC00F058BA2DE9FE4F804681EAAF
:100360000300C00F0C46009021F0004123F000452F
:10037000B8EB0200A94105D24046214690461C46F2
:100380000B46024623F00040104347D0270DC7F329
:100390000A00C3F30A510290401A019040286BDA18
:1003A000C3F3130040F4801B0098924620B1002351
:1003B000D2EB030A63EB0B0B01985946C0F14002E4
:1003C000504600F000FA06460D4650465946019A3E
:1003D00000F008FA10EB08006141002487EA11528E
:1003E00084EAE7731A4340D0009A62B3019A012A63
:1003F0004FEA075215DC001B61EB02014FF000428F
:1004000002EA0752CDE90042001C41F58011324654
:100410002B4600F03FFA03B0BDE8F08F404621467E
:10042000F9E7001B61EB0201001C41F58013001885
:100430005B412018A2F5001747EB030140EAD57095
:10044000B6196D4111E06D084FEA360645EAC075F0
:100450004FEA0752001B61EB0201001C41F58011BD
:1004600049084FEA30000019514132462B4603B08B
:10047000BDE8F04F00F0FFB90098012240000023D2
:10048000D0EB020263EBE073009821464FEAE07480
:10049000B8EB000061EB0401E9E783F000435BE7A0
:1004A00081F0004158E72DE9FE4F81EA030404F092
:1004B000004421F0004100944FF0000B23F0004372
:1004C00050EA01045ED052EA03045BD0C3F30A543D
:1004D000C1F30A552C44A4F2F3340194A0FB025456
:1004E000C1F3130141F48011C3F3130343F48013E8
:1004F00001FB024400FB034E840A970A44EA81543C
:1005000047EA8357A4FB076802958D0A05FB078518
:100510004FEA932C04FB0C542705029D4FEA065822
:1005200047EA1637B5EB08056EEB070C870E920EFF
:1005300047EA811742EA8312A7FB0201B6EB0B01DF
:1005400064EB00042B0D43EA0C335E1844EB1C50A3
:10055000DA465146E7FB0201C5F313044FEA0B33B9
:1005600043EA14534FEA0432019C43EA0603A4F120
:100570000C040294009CCDE900B400F08BF903B0A8
:10058000BDE8F08F00200146F9E72DE9F04D81EA42
:10059000030404F0004B21F0004514464FF0000A1C
:1005A00023F0004150EA050220D054EA01021DD098
:1005B000C5F30A570246C5F31303C1F31300C1F391
:1005C0000A5640F4801543F48013A7EB0608101B6D
:1005D000D64608F2FD3873EB050002D308F1010896
:1005E00001E092185B41B8F1000F03DA00200146E8
:1005F000BDE8F08D00204FF48011064684460EE0E1
:10060000171B73EB050705D3121B63EB05030643AA
:100610004CEA010C49084FEA300092185B4150EA5D
:100620000107EDD152EA030012D082EA040083EA06
:100630000501084305D0101BAB4106D2012200235F
:1006400006E000224FF0004302E06FF00102531079
:100650001AEB06004CEB085110EB0A0041EB0B01C2
:10066000BDE8F04D00F007B9C10F80EAE070084422
:10067000CA079623002100F0D0B896230022114625
:1006800000F0CBB800F0004220F00040C10DC0F3F4
:10069000160040F400007F2901DA002070479629F7
:1006A00003DCC1F19601C84001E096398840002A78
:1006B000F4D04042704720F00040C10DC0F3160056
:1006C00040F400007F2901DA00207047962903DCFE
:1006D000C1F19601C840704796398840704700F0D4
:1006E000004230F000400AD0C10D01F56071C0F346
:1006F000160042EA0151C20840071143704700202A
:100700000146704701F0004330B421F0004150EA47
:10071000010206D00A0DA2F56072C1F31301002A8E
:1007200002DC30BC00207047440F44EAC104C10021
:10073000E01830BC00EBC25000F066B8002801DBC6
:10074000C0F10040002901DBC1F100418142704746
:10075000002801DBC0F10040002901DBC1F10041AC
:10076000884270472DE9F05F0546002092469B467F
:1007700088460646814640241BE0284641464746B7
:10078000224600F017F953465A46C01A914110D339
:1007900011461846224600F016F82D1A67EB01089C
:1007A0004F4622460120002100F00DF817EB00090A
:1007B0004E41201EA4F10104DFDC484631462A46A2
:1007C0004346BDE8F09F202A04DB203A00FA02F1FC
:1007D000002070479140C2F1200320FA03F319432F
:1007E00090407047202A06DBCB17203A41FA02F0EE
:1007F00043EAE07306E041FA02F3D040C2F120027E
:1008000091400843194670470029A8BF7047401C13
:10081000490008BF20F00100704710B4B0FA80FC16
:1008200000FA0CF050EA010404BF10BC704749B153
:10083000CCF1200421FA04F411FA0CF118BF0121C3
:1008400021430843A3EB0C01CB1D4FEA00614FEAA3
:10085000102042BF002010BC704700EBC350104472
:100860000029A4BF10BC7047401C490008BF20F0FD
:10087000010010BC704710B5141E73F1000408DAB3
:10088000401C41F1000192185B411A4301D120F054
:10089000010010BD2DE9F04D92469B4611B1B1FA11
:1008A00081F202E0B0FA80F220329046FFF78BFF2F
:1008B00004460F4640EA0A0041EA0B0153465A46F5
:1008C000084313D0114653EA010019D0C8F1400281
:1008D000504600F06FF805460E46504659464246CF
:1008E000FFF771FF084305D0012004E02046394698
:1008F000BDE8F08D0020054346EAE0762C433743FF
:100900000A986305E40AA0EB08000022FD0A44EA05
:1009100047540A3002D500200146E9E701051019C5
:100920006941DDE9084500196941BDE8F04DA2E7DC
:1009300070B521F0004303430CD0C1F30A550024E5
:10094000D5EB040564EB0403D617AD1AB34102DB03
:100950000020014670BD201841EB025170BD00001F
:1009600030B5041E71F1000404DB4FF00044404236
:1009700064EB0101141E73F1000405DB1C464FF00B
:100980000043524263EB04038B4208BF824230BDF6
:10099000064C074D06E0E06840F0010394E80700CC
:1009A00098471034AC42F6D3FFF7A4FB107A000846
:1009B000307A0008202A04DB203A21FA02F00021D4
:1009C000704721FA02F3D040C2F12002914008435F
:1009D000194670472DE9F04D00231A461B1A8A412B
:1009E00003DB00200146BDE8F08DC1F30A52C1F3DC
:1009F000130141F480154FF0000BD10702D100180C
:100A00006D41521E0027044640F2FF11384601EBAB
:100A1000620A3E468046024600204FF48011FFF7EE
:100A2000C9FFC2197141BB1846EB0100B4EB030CBE
:100A300075EB000C04D3E41A65EB000517460E466F
:100A4000241908F101006D4180463428E3DDF919CD
:100A500046EB0600091BA84103D24FF0FF321346B4
:100A600001E0002213461BEB070046EB0A51BDE8EC
:100A7000F04DFFF700BF70B58C1810F8015B15F052
:100A8000070301D110F8013B2A1106D110F8012B00
:100A900003E010F8016B01F8016B5B1EF9D12B0725
:100AA00005D40023521E0DD401F8013BFAE710F8DB
:100AB000013BCB1A921C03E013F8015B01F8015BC8
:100AC000521EF9D5A142D8D3002070BD30B589B0EF
:100AD00005460C460121022001F01CF901210820E5
:100AE00001F028F90220ADF8200018208DF823002D
:100AF00003208DF8220008A9184800F0C1FAADF8CB
:100B00001850ADF814400020ADF81A00ADF81600EA
:100B100005A9134801F09AFE6020ADF804000120F9
:100B2000ADF806000020ADF80A00ADF80C0001A9F0
:100B30000B4801F00BFE0121094801F0BEFC082121
:100B4000074801F041FE0121054801F09BFC01210D
:100B5000034801F0A6FC09B030BD0000000C0140C4
:100B60000004004000B587B00121084601F0D2F82A
:100B70000121042001F0DEF80320ADF8000004207C
:100B80008DF8030069461E4800F07AFA04A801F0C7
:100B9000AFFE0020ADF810004FF6FF70ADF8140066
:100BA0000020ADF81600ADF8120004A94FF0804007
:100BB00001F04CFE00231A4603214FF0804001F063
:100BC0008BFC01A801F000FD0A20ADF80C0001A982
:100BD000400701F0A3FC0121880701F05FFC01221E
:100BE0001146900701F0F9FC00214FF0804001F020
:100BF000FFFD0121880701F054FC07B000BD000093
:100C00000008014030B589B005460C46012102209C
:100C100001F080F80121082001F08CF80120ADF8E6
:100C2000200018208DF8230003208DF8220008A949
:100C3000164800F025FAADF81850ADF81440002021
:100C4000ADF81A00ADF8160005A9114801F0FEFD37
:100C50006020ADF804000120ADF806000020ADF8DA
:100C60000A00ADF80C0001A9094801F015FD0821A2
:100C7000074801F061FD0121054801F003FC012155
:100C8000034801F00EFC09B030BD0000000C01402B
:100C90000004004000B587B00121042001F03AF8BB
:100CA0000121082001F046F8C020ADF80000042022
:100CB0008DF8030069461C4800F0E2F904A801F031
:100CC00017FE0020ADF810004FF6FF70ADF81400CD
:100CD0000020ADF81600ADF8120004A9134801F089
:100CE000B5FD00231A460321104801F0F5FB01A8C9
:100CF00001F06AFC0A20ADF80C0001A90B4801F0D4
:100D00000DFC0121094801F0C9FB012211460748E9
:100D100001F063FC0021054801F06AFD0121034850
:100D200001F0BFFB07B000BD000C0140000800400F
:100D300070B5044604F0F005102D41D1A4F1110066
:100D40000C283CD2DFE800F006071112161C202107
:100D50002B2C333433E05549B1F9001001F6C4109F
:100D6000FFF782FC5249C86129E028E05148524906
:100D7000C86124E04FF48051504800F055FA1EE05D
:100D80004F484D49C8611AE019E04849B1F90010CF
:100D90004C4A501AFFF768FC4549C8610FE00EE065
:100DA00042480088643000B24049088007E006E00D
:100DB0003E480088643800B23C49088000BF73E0B8
:100DC000202D23D1A4F121000C281ED2DFE800F051
:100DD0001206100B140C1107131A1B1C00BF002065
:100DE0003349C86111E000BF00203349C8610CE0FD
:100DF00000BF00BF00BF08E04FF480512F4800F053
:100E000015FA02E001E000E000BF4DE0302D2DD1E9
:100E1000A4F131000C2828D2DFE800F0060A0E12F7
:100E2000161A1E22232425260120274908701CE0BB
:100E300001202549087018E002202349087014E0B9
:100E400003202149087010E004201F4908700CE0BD
:100E500005201D49087008E006201B49087004E0C1
:100E600003E002E001E000E000BF1DE0402D1BD1E7
:100E7000A4F141000C2816D2DFE800F006070809AB
:100E80000A0B0C101112131400BF00BF00BF00BFEB
:100E900000BF00BF00200C49087004E003E002E03E
:100EA00001E000E000BF00BF70BD0000F6010020BF
:100EB0006802002000401C45A802002000080140F4
:100EC00000401CC53CF6FFFFE401002000BFFEE728
:100ED000704700002948006800284DD1202028498B
:100EE000086028480078401C264908702648007889
:100EF000401C2549087025480078401C234908708B
:100F000023480078401C2249087022480078401C81
:100F1000204908701B480078022805DB0020194989
:100F2000087001201C49087017480078042805DB68
:100F300000201549087001201849087013480078EE
:100F40000A2805DB002011490870012014490870A7
:100F50000F480078142805DB00200D490870012097
:100F6000104908700B480078282805DB0020094943
:100F7000087001200C49087070470000148121425C
:100F800014040140DC010020DD010020DE0100200E
:100F9000DF010020E0010020D7010020D90100205E
:100FA000D8010020DB010020DA01002000212349C4
:100FB0008279002A3AD00A46126803689A430B469F
:100FC0001A600A1D126803689A430B1D1A600279A1
:100FD00011440A6803681A430A60184A0832126802
:100FE00003689A43154B08331A601A1D1268036888
:100FF0009A43124B0C331A604279102A0ED11A1FF1
:10100000126803681A430D4B08331A601A1D1268E0
:1010100003681A43094B0C331A600DE00749427903
:1010200011440A6803681A430A6005E00279114412
:101030000A6803689A430A60704700000004014090
:1010400030B500228B071C0F0F2303FA04F20B4B61
:101050008C1053F824309343084C8D1044F82530FD
:1010600023468C1053F824308C07240F00FA04F424
:101070002343024C8D1044F8253030BD0800014058
:101080002DE9F0410246002500260020002300241F
:10109000002791F803C00CF00F0591F803C00CF085
:1010A000100CBCF1000F03D091F802C04CEA05050A
:1010B00091F800C0BCF1000F31D0146800202BE083
:1010C0004FF0010C0CFA00F3B1F800C00CEA030673
:1010D0009E4220D183004FF00F0C0CFA03F7BC4363
:1010E00005FA03FC4CEA040491F803C0BCF1280F94
:1010F00006D14FF0010C0CFA00FCC2F814C00AE053
:1011000091F803C0BCF1480F05D14FF0010C0CFA67
:1011100000FCC2F810C0401C0828D1D31460B1F8FC
:1011200000C0BCF1FF0F34DD546800202EE000F158
:10113000080C4FF0010808FA0CF3B1F800C00CEAF3
:1011400003069E4221D183004FF00F0C0CFA03F7E7
:10115000BC4305FA03FC4CEA040491F803C0BCF15B
:10116000280F05D100F1080C08FA0CF8C2F8148019
:1011700091F803C0BCF1480F07D100F1080C4FF003
:10118000010808FA0CF8C2F81080401C0828CED3D9
:101190005460BDE8F0810000F0B50A460023002449
:1011A0000021002500F00046B6F1004F02D11D4E8F
:1011B000F16901E01B4E7168C0F3034583B200F48E
:1011C0004016B6F5401F08D121F07061154E7668C3
:1011D00026F07066134F7E6012E000F48016B6F5BC
:1011E000801F06D1032606FA05F4A14341F0706181
:1011F00006E0460D360103FA06F6B14341F0706190
:1012000022B1460D360103FA06F6314300F00046DE
:10121000B6F1004F02D1034EF16101E0014E716061
:10122000F0BD00000000014041617047016170475E
:1012300000BFFEE708B50121042000F07BFD3C2043
:10124000ADF8000004208DF8030069460148FFF75F
:1012500017FF08BD0008014008B501210C2000F06F
:1012600069FD4FF40070ADF8000010208DF8030008
:1012700003208DF8020069460B48FFF701FF00F0DC
:1012800003FE4FF48050ADF8000069460748FFF7B1
:10129000F7FE4FF480510548FFF7C8FF4FF4805127
:1012A0000248FFF7C3FF08BD000C014000080140E1
:1012B00070B50546002400BF0AE005FA04F000F00E
:1012C000080010B101F0ECFC01E001F0D3FC641C5B
:1012D000082CF2DB70BD0346934201DD10467047D7
:1012E0008B4201DA0846FAE71846F8E770B5064679
:1012F0000D46144621463046FFF72AFA01D820460B
:1013000070BD29463046FFF719FA01D82846F7E79D
:101310003046F5E70346934201DD104670478B42A5
:1013200001DA0846FAE71846F8E700001FB5012180
:10133000084600F0FFFC0121082000F0FBFC202003
:10134000ADF80C0048208DF80F0003A91148FFF7F5
:1013500097FE05210120FFF773FE20200190002059
:101360008DF808000C208DF8090001208DF80A0086
:1013700001A8FFF71BFE17208DF8000000208DF854
:10138000010001208DF802008DF80300684600F08E
:10139000BDFA1FBD000C014010B500200E490860C9
:1013A0000E48006820F470400C4908600846006848
:1013B00040F44050086000200949C1F88C0100F059
:1013C00011F801200449086000F00CF800200449DD
:1013D000C1F8900110BD000090812142000C014035
:1013E0000080214210B5022002F02CFB10BD00004D
:1013F00008B50121092000F09DFC01210848FFF7F4
:10140000CBFE1820ADF8000010208DF8030003205B
:101410008DF8020069460348FFF732FE08BD000060
:1014200000023000000C014010B500200E49086099
:101430000E48006820F470400C49086008460068B7
:1014400040F44050086001200949C1F88C01FFF7C1
:10145000C9FF012004490860FFF7C4FF00200449C8
:10146000C1F8900110BD000090812142000C0140A4
:101470000080214270B5054600241648006820F41B
:101480007040144908600846006840F40040086055
:10149000002614E0002010490860FFF7A3FF012098
:1014A0000E49C1F890016006040E0B4884380068AC
:1014B00008B1601CC4B2FFF795FF701CC6B2082EBD
:1014C000E8DB15B9FFF7B0FF01E0FFF765FF204645
:1014D00070BD0000000C014090812142008021423B
:1014E00070B504461248006820F470401049086046
:1014F0000846006840F44050086000200D4908602C
:10150000002512E0E0090B49091F08606006040E7F
:1015100001200949C1F89001FFF764FF0020054947
:101520000860FFF75FFF681CC5B2082DEADB70BDDD
:10153000000C0140908121420080214210B50E48EC
:10154000006820F470400C4908600846006840F4C8
:10155000405008600120094908600949C1F890011C
:10156000FFF740FF002005490860FFF73BFF002020
:101570000349C1F8900110BD000C01408C8121424B
:101580000080214210B50E48006820F470400C49DC
:1015900008600846006840F440500860002009498F
:1015A00008600949C1F88C01FFF71CFF01200549BB
:1015B00008600549C1F88C01FFF714FF10BD000059
:1015C000000C0140908121420080214210B500248E
:1015D0001448006820F4704012490860084600680A
:1015E00040F40040086001200F490860FFF7FAFE50
:1015F00001200E49C1F89001FFF7F4FE07E0601CDE
:10160000C4B2FA2C03DDFFF7BDFF012010BD064870
:10161000803800680028F2D10349091D086000BF26
:10162000F4E70000000C01408C812142008021423F
:1016300010B5FFF7DDFE80216B2000F0D7F86420A5
:1016400002F0DAF900216B2000F0D0F8032000F05E
:101650008BF8002000F080F8322000F0AAF800217A
:10166000382000F0C3F800216A2000F0BFF8002104
:10167000232000F0BBF88021372000F0B7F8752058
:1016800000F013F80446682C0BD101216B2000F008
:10169000ADF800216C2000F0A9F8322000F089F8A4
:1016A00001E0012010BD0020FCE770B50446FFF703
:1016B00045FFD020FFF714FFFFF788FF2046FFF714
:1016C0000FFFFFF783FFFFF739FFD120FFF708FF78
:1016D000FFF77CFF0020FFF7CDFE0546FFF752FF26
:1016E000284670BD2DE9F04106460F4614461D46BA
:1016F000FFF724FF002141EA4601C8B2FFF7F0FEE0
:10170000FFF764FF20B1FFF73DFF0120BDE8F08146
:101710003846FFF7E5FEFFF759FFFFF70FFF0121FE
:1017200001EB4601C8B2FFF7DBFEFFF74FFF0DE00C
:10173000012C04D10020FFF79DFE287003E001205A
:10174000FFF798FE2870601EC4B26D1C002CEFD10C
:10175000FFF718FF0020D9E710B50446E006010E98
:101760001C2000F043F810BD10B50446E006010E41
:101770001B2000F03BF810BD70B504460025BC2CC2
:1017800001DB012510E0622C01DB02250CE02A2C94
:1017900001DB032508E0142C01DB042504E00A2CFE
:1017A00001DB052500E0062529461A2000F01EF879
:1017B00070BD70B50446B4F57A7F01DD4FF47A74DC
:1017C000042C00DA04244FF47A7090FBF4F0401EED
:1017D000C5B22946192000F009F80546264604EB53
:1017E000D671C1F34F00FFF7C7FF70BD70B5054656
:1017F0000C46FFF7A3FED020FFF772FEFFF7E6FED0
:1018000018B1FFF7BFFE012070BD2846FFF768FE44
:10181000FFF7DCFE2046FFF763FEFFF7D7FE18B1A7
:10182000FFF7B0FE0120EFE7FFF7ACFE0020EBE78B
:101830002DE9F04105460E4617469846FFF77EFE15
:10184000002141EA4501C8B2FFF74AFEFFF7BEFE9C
:1018500020B1FFF797FE0120BDE8F0813046FFF789
:101860003FFEFFF7B3FE00240CE018F80400FFF77A
:1018700037FEFFF7ABFE18B1FFF784FE0120EBE760
:10188000601CC4B2BC42F0DBFFF77CFE0020E3E743
:1018900000BFFEE708B50121082000F04BFA4FF425
:1018A0007040ADF8000010208DF8030003208DF883
:1018B000020069460E48FFF7E3FB00200D4908606F
:1018C0000D49C1F8B0010B49091D08600A49C1F86A
:1018D000BC01002141F61F40FFF7F8F8002141F656
:1018E0001F40FFF78FF90021084604F0AFFC08BD48
:1018F000000C0140B481214200802142002802DA1C
:10190000414208B2704700BFFCE7704770B5002144
:1019100000230F22C47804B3154C246804F4E06457
:10192000C4F5E064210AC1F10403CA40447804FA12
:1019300003F184781440214309010E4C0678A15527
:10194000047804F01F050124AC4005786D11AD004A
:1019500005F1E025C5F8004109E0047804F01F0511
:101960000124AC40044D0678761145F8264070BD40
:101970000CED00E000E400E080E100E002490143FA
:10198000024A1160704700000000FA050CED00E00B
:1019900070B5002418E004F1B000002100F055F902
:1019A0000021084600F051F90021102000F04DF907
:1019B000002505E00121002000F047F9681CC5B2B0
:1019C000802DF7DB601CC4B2082CE4DB70BD000086
:1019D00010B580210748FFF729FC40210548FFF793
:1019E00025FC40210348FFF71FFC80210148FFF739
:1019F0001BFC10BD0008014010B580210548FFF711
:101A000015FC40210348FFF70FFC40210148FFF778
:101A10000DFC10BD0008014010B580210348FFF700
:101A200005FC80210148FFF7FFFB10BD00080140C5
:101A300008B50121042000F07DF9C020ADF80000B8
:101A400010208DF8030003208DF8020069463D4800
:101A5000FFF716FBC0213B48FFF7E8FB4FF4487047
:101A600001F0CAFF0021AE2000F0EFF80021084687
:101A700000F0EBF80021102000F0E7F800214020F2
:101A800000F0E3F80021B02000F0DFF80021812011
:101A900000F0DBF80021FF2000F0D7F80021A120A2
:101AA00000F0D3F80021A62000F0CFF80021A820F4
:101AB00000F0CBF800213F2000F0C7F80021C8203B
:101AC00000F0C3F80021D32000F0BFF80021084641
:101AD00000F0BBF80021D52000F0B7F800218020ED
:101AE00000F0B3F80021D82000F0AFF80021052065
:101AF00000F0ABF80021D92000F0A7F80021F12078
:101B000000F0A3F80021DA2000F09FF80021122055
:101B100000F09BF80021DB2000F097F80021302036
:101B200000F093F800218D2000F08FF800211420A0
:101B300000F08BF80021AF2000F087F8FFF728FFB6
:101B400008BD00000008014070B504460D4605F1CF
:101B5000B000002100F079F8102141EA14100021B2
:101B600000F073F804F00F00002100F06EF870BD73
:101B70002DE9F04707460E46904699460025002479
:101B8000A8F12000C5B27F2F02DD0027B01CC6B22D
:101B9000B9F1100F24D131463846FFF7D5FF0024A4
:101BA00008E004EB0511194A505C012100F04DF8E2
:101BB000601CC4B2082CF4DB701CC1B23846FFF7BD
:101BC000C3FF002409E004EB051108310F4A505C03
:101BD000012100F03AF8601CC4B2082CF3DB12E0DB
:101BE00031463846FFF7B0FF00240AE005EB450117
:101BF000074A02EB4101085D012100F026F8601C54
:101C0000C4B2062CF2DBBDE8F08700009466000841
:101C10006C6400082DE9F04105460E4614461F4647
:101C20000EE022783B4631462846FFF7A1FF05F13A
:101C30000800C5B2782D02DD0025B01CC6B2641CB8
:101C400020780028EDD1BDE8F08170B504460D463E
:101C50001DB1E0B200F046F802E0E0B200F02CF86E
:101C600070BD00002DE9F04105462C468021114849
:101C7000FFF7DAFA002619E0274607F08007802FE1
:101C800004D140210B48FFF7D1FA03E04021094875
:101C9000FFF7CAFA6006040E80210648FFF7C6FA6D
:101CA00080210448FFF7C0FA701CC6B2082EE3DB9F
:101CB000BDE8F0810008014010B50446FFF788FE3A
:101CC0007820FFF7CFFFFFF7A7FE0020FFF7CAFF3E
:101CD000FFF7A2FE2046FFF7C5FFFFF79DFEFFF7C7
:101CE0008BFE10BD10B50446FFF772FE7820FFF79B
:101CF000B9FFFFF791FE4020FFF7B4FFFFF78CFE1E
:101D00002046FFF7AFFFFFF787FEFFF775FE10BD18
:101D10007047000029B1064AD2690243044BDA61D8
:101D200004E0034AD2698243014BDA617047000044
:101D30000010024029B1064A92690243044B9A619D
:101D400004E0034A92698243014B9A6170470000A4
:101D50000010024030B500210022002400232D4D48
:101D60006D6805F00C0121B1042905D0082923D1A3
:101D700005E0294D056022E0274D05601FE0254D57
:101D80006D6805F47012234D6D6805F480340225EA
:101D900005EB92421CB9214D554305600BE01D4DEA
:101DA0006D6805F400351DB11C4D5543056002E01A
:101DB000194D5543056002E0174D056000BF00BF97
:101DC000144D6D6805F0F0010909154D6B5C05684F
:101DD000DD4045600F4D6D6805F4E061090A104D66
:101DE0006B5C4568DD4085600A4D6D6805F46051A7
:101DF000C90A0B4D6B5C4568DD40C560054D6D68DB
:101E000005F44041890B074D6B5CC568B5FBF3F5E4
:101E1000056130BD0010024000127A0000093D004B
:101E20004A0200205A02002010B5002406E0FF22DA
:101E30000021084600F005F8601CC4B2042CF6DB53
:101E400010BD70B506460C4615463046FFF730FA11
:101E50002046FFF72DFA2846FFF72AFA70BD10B585
:101E600000240EE0022C05DA00221146FF20FFF7C5
:101E7000E8FF04E00022FF211046FFF7E2FF601CAC
:101E8000C4B2042CEEDB10BD10B5002406E0002225
:101E900011461046FFF7D5FF601CC4B2042CF6DBD8
:101EA00010BD10B5002406E00022FF21A520FFF799
:101EB000C8FF601CC4B2042CF6DB10BD10B50024B2
:101EC00006E00022FF211046FFF7BBFF601CC4B2F2
:101ED000042CF6DB10BD00002DE9F04100250026A2
:101EE0000027274801780078401C254A10701029E7
:101EF00007DB00201146087022480078401C214969
:101F00000870002431E020480078042802DD002019
:101F10001D4908701D481B49097800EB81101A49BA
:101F2000097850F82100C0F3074518481549097889
:101F300000EB81101449097830F82100C0F307261E
:101F400012481049097800EB81100F49097810F800
:101F500021703A4629463046FFF773FF0A48007859
:101F6000401C09490870601CC4B2042CCBDB054836
:101F70000078072802D1002002490870BDE8F081EE
:101F8000D6010020D5010020D4010020140000203B
:101F900010B5002406E00F2211461046FFF751FF4E
:101FA000601CC4B2042CF6DB10BD10B5002406E0A2
:101FB0000022FF210846FFF744FF601CC4B2042C36
:101FC000F6DB10BD10B5002406E000221146FF200C
:101FD000FFF737FF601CC4B2042CF6DB10BD70475E
:101FE00010B500F001F810BD0CB500200190009074
:101FF0003348006840F480303149086000BF304801
:10200000006800F4003000900198401C0190009896
:1020100018B90198B0F5A06FF1D12948006800F413
:10202000003010B10120009001E0002000900098E5
:10203000012843D12348006840F01000214908607E
:102040000846006820F0030008600846006840F079
:10205000020008601A48406819494860084640680C
:1020600048600846406840F4806048600846406820
:1020700020F47C1048600846406840F4E81048604E
:102080000846006840F08070086000BF0C48006897
:1020900000F000700028F9D00948406820F00300E3
:1020A000074948600846406840F00200486000BFA9
:1020B0000348406800F00C000828F9D10CBD00006E
:1020C000001002400020024010B540F2CF2140F243
:1020D000CF7000F005F8A021962004F003F910BDA0
:1020E00030B589B005460C46012140F60400FFF7E3
:1020F00021FE4FF41060ADF8200018208DF8230069
:1021000003208DF8220008A91D48FEF7B9FF002022
:102110008DF81C00ADF81850ADF81440ADF81A0059
:10212000ADF8160005A9174800F090FB6020ADF847
:1021300004000120ADF806000020ADF80A00ADF85B
:102140000C0001A90F4800F051FA01A90D4800F058
:10215000FDFA01210B4800F0B0F90821094800F010
:1021600091FA0821074800F02FFB0121054800F0F3
:1021700089F90121034800F094F909B030BD00004D
:1021800000080140002C0140042808D14FF0E02154
:10219000096941F004014FF0E022116107E04FF0BE
:1021A000E021096921F004014FF0E022116170473C
:1021B0007047000010B51348006840F00100114955
:1021C000086008464068104908400E4948600846C3
:1021D00000680E4908400B4908600846006820F472
:1021E000802008600846406820F4FE0048604FF4F4
:1021F0001F008860FFF7F4FE4FF00060044908609C
:1022000010BD0000001002400000FFF8FFFFF6FEC6
:1022100008ED00E0F0B50C46154600220021068CC2
:102220004FF6FE773E400684028B018C4FF60C760B
:1022300032407E1C06EA03162E433243104EB04253
:102240000ED0104EB0420BD0B0F1804F08D00E4EE1
:10225000B04205D00D4EB04202D00D4EB04206D174
:102260004FF6FD76314044F00106314305E04FF66C
:10227000F576314044F00106314302830184F0BD1C
:10228000002C0140003401400004004000080040E0
:10229000000C0040F0B50C46154600220021002637
:1022A000078C4FF6EF7C07EA0C070784028B018C42
:1022B0004FF6FF7707EA041640F6FF473A404FF61D
:1022C000FF7707EA03373A434FF6FF7707EA052718
:1022D0003A43114FB8420ED0104FB8420BD0B0F174
:1022E000804F08D00E4FB84205D00E4FB84202D0F2
:1022F0000D4FB84206D14FF6DF77394046F0100750
:10230000394305E04FF65F77394044F01007394311
:1023100002830184F0BD0000002C01400034014024
:102320000004004000080040000C0040F0B50C46DE
:102330001546002200210026078C4FF6FF6C07EAA5
:102340000C070784828B018C4FF6FF7707EA04267F
:102350004FF60C773A404FF6FF7707EA03172F4303
:102360003A43114FB8420ED0104FB8420BD0B0F1E3
:10237000804F08D00E4FB84205D00E4FB84202D061
:102380000D4FB84206D14FF6FF57394046F48077DB
:10239000394305E04FF2FF57394044F48077394321
:1023A00082830184F0BD0000002C01400034014014
:1023B0000004004000080040000C0040F0B50C464E
:1023C0001546002200210026078C4EF6FF7C07EA06
:1023D0000C070784828B018C4FF6FF7707EA0436DF
:1023E00040F6FF473A404FF6FF7707EA05273A43A2
:1023F0004FF6FF7707EA03373A43114FB8420ED042
:10240000104FB8420BD0B0F1804F08D00E4FB842F9
:1024100005D00E4FB84202D00D4FB84206D14DF64E
:10242000FF77394046F48057394305E047F6FF57B8
:10243000394044F48057394382830184F0BD000061
:10244000002C01400034014000040040000800401E
:10245000000C00404FF08040008A4FF08040008A1E
:1024600020F001004FF08041088270470448008846
:102470000348008820F001000149088070470000EF
:102480001008004021B1028842F08002028004E07E
:1024900002884FF67F731A4002807047CA43028257
:1024A000704721B1028842F00102028004E00288F4
:1024B0004FF6FE731A400280704731B1B0F84420E5
:1024C00042F40042A0F8442005E0B0F84420C2F3F2
:1024D0000E02A0F844207047F0B50C4615461E4683
:1024E0000021002200230189028B038C4FF6F8772C
:1024F000394021434FF6FC473A4040F201173A4336
:102500004FF6DD773B404FF6FF7707EA06172F437C
:102510003B43018102830384F0BD000070B5054692
:102520000C46244885420ED0234885420BD0B5F195
:10253000804F08D02148854205D02148854202D0ED
:102540002048854200D100E000BF208850B923898F
:10255000A28861882846FFF75DFEE188284600F0E2
:1025600049F925E0208804280AD12389A2886188B6
:102570002846FFF78FFEE188284600F044F917E06F
:10258000208808280AD12389A28861882846FFF775
:10259000CDFEE188284600F043F909E02389A288AE
:1025A00061882846FFF70AFFE188284600F041F9D4
:1025B00070BD0000002C01400034014000040040C8
:1025C00000080040000C00400021018041800121F2
:1025D00081800021C180018170471AB183890B433A
:1025E000838102E083898B438381704770B5002427
:1025F00000220023058C4FF6FE7635400584028CC0
:102600008388048B4FF68F752C40B51E2C400D88A7
:102610002C43751E2A400D892A434D882A43144DA8
:10262000A8420BD0134DA84208D0134DA84205D0A4
:10263000124DA84202D0124DA84213D14FF6F775A1
:102640002A404D892A434FF6FB752A408D882A433C
:102650004FF6FF652B404FF6FF552B408D892B43DE
:10266000CD892B4383800483CD888586028470BD09
:10267000002C014000340140004001400044014072
:10268000004801400A460021018B4FF6F7731940BC
:10269000114301837047000070B50024002200231D
:1026A000058C4FF6FF6635400584028C8388848B49
:1026B0004FF68F752C404FF6FC752C400D882C433F
:1026C0004FF6FF552A400D894FF6FF7606EA05259D
:1026D0002A434D8806EA05252A43154DA84202D013
:1026E000144DA8421DD14FF2FF752A404D894FF677
:1026F000FF7606EA05252A434FF6FF352A408D88E6
:1027000006EA05252A434EF6FF752B404DF6FF7568
:102710002B408D8906EA05152B43CD8906EA051560
:102720002B4383808483CD888587028470BD00001D
:10273000002C0140003401400A460021818B4FF6F5
:10274000F7731940114381837047000070B5002270
:1027500000230024058C4EF6FF7635400584038C5B
:102760008488828B48F6FF752A404FF6FF452A4041
:102770000D884FF6FF7606EA05252A434DF6FF75CC
:102780002B400D8906EA05352B434D8806EA0535B1
:102790002B430B4DA84202D00A4DA84208D14BF65C
:1027A000FF752C408D894FF6FF7606EA85152C4380
:1027B00084808283CD88A0F84050038470BD0000DF
:1027C000002C0140003401400A460021818B4FF269
:1027D000FF7319404FF6FF7303EA02231943818305
:1027E00070478186704781877047A0F84010704716
:1027F00081847047028B4FF6F3731A400283028B79
:102800000A4302837047028B4FF2FF331A40028360
:10281000028B4FF6FF7303EA01231A4302837047CA
:10282000828B4FF6F3731A408283828B0A43828332
:102830007047828B4FF2FF331A408283828B4FF6B0
:10284000FF7303EA01231A43828370470022028840
:102850001D4B98420ED01D4B98420BD0B0F1804FCB
:1028600008D01B4B984205D01A4B984202D01A4B05
:10287000984204D14FF68F731A404B881A43174B76
:10288000984207D0164B984204D04FF6FF431A40A7
:10289000CB881A4302808B8883850B8803850A4B7B
:1028A00098420BD0094B984208D00E4B984205D065
:1028B0000D4B984202D00D4B984201D10B7A038602
:1028C0000123838270470000002C01400034014046
:1028D0000004004000080040000C004000100040D0
:1028E0000014004000400140004401400048014005
:1028F0004FF6FF71818000210180C180418001720B
:102900007047000010B540F22551074800F04CF820
:1029100018B10548001D0088C4B240F22551024894
:1029200000F01AF810BD00000038014010B540F268
:102930002551084800F038F830B10648001D0088DD
:10294000C4B22046FEF7F4F940F22551014800F0E8
:1029500003F810BD0048004010B50022002340F6E7
:102960006A14A14200D100BF0A1201249440A3B20C
:10297000DC43048010BD21B1828942F4005282817F
:1029800004E082894DF6FF731A4082817047024647
:102990000020B1F5007F00D100BF13880B400BB1C0
:1029A000012000E00020704770B50246002400239B
:1029B0000025002040F66A16B14200D100BFC1F3E5
:1029C000421501F01F03012606FA03F3012D02D17F
:1029D0009689334006E0022D02D1168A334001E089
:1029E000968A33400C12012606FA04F41688344005
:1029F00013B10CB1012000E0002070BDF0B503461A
:102A0000002400260025002040F66A17B94200D1B4
:102A100000BF1846C1F3421401F01F06012707FA50
:102A200006F5012C01D10C3004E0022C01D110304C
:102A300000E014301AB107682F43076002E007680E
:102A4000AF430760F0BD00002DE9F04786B00546B2
:102A50000E460024A24600BFA1460027B08900B15F
:102A600000BF2F462C8A4CF6FF700440F0880443C8
:102A70002C82AC894EF6F3100440B08831890843AB
:102A8000718908430443AC81AC8A4FF6FF4004408F
:102A9000B0890443AC8201A8FFF75CF91F48874264
:102AA00002D1DDF810A001E0DDF80CA0A88900F447
:102AB000004040B10AEBCA0000EB0A10316849003F
:102AC000B0FBF1F807E00AEBCA0000EB0A1031682E
:102AD0008900B0FBF1F86420B8FBF0F00401200994
:102AE000642101FB1089A88900F4004040B1322024
:102AF00000EBC900B0FBF1F000F00700044308E070
:102B0000322000EB09106421B0FBF1F000F00F005F
:102B100004432C8106B0BDE8F08700000038014076
:102B2000C1F308028280704710B586B004460121C7
:102B300044F20400FFF7FEF84FF40070ADF8140003
:102B400003208DF8160018208DF8170005A91D48E0
:102B5000FEF796FA4FF48060ADF8140004208DF86B
:102B6000170005A91748FEF78BFA25208DF80000FD
:102B700001208DF8010002208DF8020001208DF85F
:102B800003006846FEF7C2FE01940020ADF808007D
:102B9000ADF80A00ADF80C00ADF810000C20ADF84F
:102BA0000E0001A90848FFF74FFF012240F225510E
:102BB0000548FFF723FF01210348FFF7DCFE06B0BD
:102BC00010BD0000000801400038014010B586B07B
:102BD000044601210820FFF7ADF801218804FFF722
:102BE00099F84FF48060ADF8140003208DF81600BA
:102BF00018208DF8170005A91B48FEF741FA4FF47D
:102C00000060ADF8140004208DF8170005A91648DF
:102C1000FEF736FA27208DF8000001208DF801001C
:102C20008DF802008DF803006846FEF76FFE0194F0
:102C30000020ADF80800ADF80A00ADF80C00ADF8C2
:102C400010000C20ADF80E0001A90848FFF7FCFEAB
:102C5000012240F225510548FFF7D0FE012103482B
:102C6000FFF789FE06B010BD000C0140004800408F
:102C700000BFFEE710B50424E1010848FEF7D6FACC
:102C800000BF4FF400710548FEF7CEFA00E000BF28
:102C9000201EA4F10101CCB2F9D110BD000C0140FD
:102CA00070B5032503244FF400710B48FEF7BEFAFC
:102CB00000E000BF281EA5F10101CDB2F9D14FF40B
:102CC00000710548FEF7B0FA00E000BF201EA4F135
:102CD0000101CCB2F9D170BD000C01400FB4054B1D
:102CE00010B503A9044A029800F09AF810BC5DF8E8
:102CF00014FB00004D46000860020020490050EA25
:102D0000C12018BF04204A0D18BF40F0010040F256
:102D1000FF72B2EB515F08BF40F00200012808BF0C
:102D2000052070472DE9F0414F1E00EBC701044616
:102D3000D1E9000115461E4637F006020DD02A469D
:102D40003346FDF7B0FB7F1E04EBC703D3E9002336
:102D5000FDF702FB37F00602F1D1022F25D0042F38
:102D600013D0062F18BFBDE8F0812A463346FDF781
:102D70009AFBD4E90A23FDF7EFFA2A463346FDF71A
:102D800092FBD4E90823FDF7E7FA2A463346FDF71C
:102D90008AFBD4E90623FDF7DFFA2A463346FDF71E
:102DA00082FBD4E90423FDF7D7FA2A463346FDF720
:102DB0007AFBD4E90223FDF7CFFA2A463346FDF722
:102DC00072FBD4E90023BDE8F041FDF7C5BA01224A
:102DD000FDF7AEBDFDF7C0BA0022134610461146FE
:102DE000FDF7D3BB024A00201107FDF7A1BD00008B
:102DF00001FDFFFF02E008C8121F08C1002AFAD136
:102E000070477047002001E001C1121F002AFBD16A
:102E1000704700000149086070470000640200200C
:102E20002DE9FF4F8DB00F460546002606E0252808
:102E30000BD0DDE90F1290476D1C761C2878002816
:102E4000F5D111B03046BDE8F08F0024A246A1466E
:102E50000122E94900E0044315F8013F203B02FA52
:102E600003F00842F7D128782A2810D06FF02F02FB
:102E70002878A0F13001092914D80AEB8A0102EB65
:102E8000410144F0020400EB010A6D1CF0E701CFA0
:102E90005FEA000A03D544F40054CAF1000A44F082
:102EA00002046D1C28782E2817D115F8010F44F064
:102EB00004042A280ED06FF02F022878A0F13001E8
:102EC00009290AD809EB890102EB410100EB01094C
:102ED0006D1CF2E757F8049B6D1C28786C280FD006
:102EE00006DC4C2817D068280DD06A2814D104E0DD
:102EF000742810D07A280FD10DE044F400140AE0B1
:102F000044F4801401E044F440146978814202D111
:102F100004F580146D1C6D1C28786E281ED00CDC06
:102F2000632830D004DC00288BD0582811D19FE0D2
:102F3000642867D069280CD164E073282DD004DCA4
:102F40006F2872D0702804D194E075286ED078284C
:102F50006DD0DDE90F129047761C4BE1C4F30250AF
:102F6000022806D0032809D0042801CF09D0066022
:102F700040E101CFF117C0E900613BE101CF0680DC
:102F800038E1067036E117F8040B8DF800000020D8
:102F90008DF80100EB46012003E057F804BB4FF029
:102FA000FF3061074FF0000102D40DE008F101018C
:102FB000884649450FDA8045F8DB1BF808100029E0
:102FC000F4D108E008F1010188468142FADB1BF8E0
:102FD00008100029F6D1DDE90F23AAEB080081468D
:102FE000214600F031F9304400EB080604E0DDE949
:102FF0000F121BF8010B9047B8F10108F7D22146D8
:103000004846F2E00A21C4F302524FF0000B089147
:10301000022A04D001CFC117032A09D00AE0FF1DFC
:1030200027F00707F7E8020108E02CE01EE01FE0A8
:1030300000B2C117042A01D140B2C117021E71F1BA
:10304000000206DA0023D0EB030063EB01012D221E
:1030500002E0220504D52B228DF82420012203E072
:10306000E20701D02022F7E7904653E00A210BE067
:10307000102109E010214FF0000B44F004044FF040
:103080000809089103E008214FF0000B0891C4F3F0
:103090000252022A04D001CF0021032A06D006E002
:1030A000FF1D27F00707F7E8020103E080B2042ABA
:1030B00000D1C0B24FF0000822072BD52A78702A21
:1030C00007D0DDF820C08CF0100C5CEA0B0C05D0AA
:1030D0000EE040228DF82420012208E050EA01038E
:1030E00006D030238DF824308DF82520022290461A
:1030F000089B83F0080353EA0B030BD150EA01024B
:1031000001D1620706D530228DF824204FF0010846
:10311000A9F101092A78582A04D038A20B9208AAEA
:103120000A920BE03AA2F9E75B46089AFDF71AFB10
:103130000B9B9B5C0A9A521E0A92137050EA010282
:10314000F2D10A98ADEB000000F1200B600702D528
:1031500024F4803401E04FF00109D94502DDA9EBE8
:103160000B0000E0002000EB0B0141440890AAEBAB
:10317000010AE00306D4DDE90F232146504600F0A2
:1031800063F806444FF0000908E009A911F80900A6
:10319000DDE90F12904709F10109761CC145F4DB06
:1031A000E0030CD5DDE90F232146504600F04CF832
:1031B000064404E0DDE90F1230209047761C0899A0
:1031C000481E08900029F5DC08E00A980A99007862
:1031D000491C0A91DDE90F129047761CBBF10001F2
:1031E000ABF1010BF1DC21465046DDE90F2300F085
:1031F00019F806446D1C21E60928010030313233EC
:103200003435363738396162636465660000000022
:10321000303132333435363738394142434445460C
:10322000000000002DE9F041044600251E46174627
:10323000880404D405E039462020B0476D1C641E84
:10324000F9D52846BDE8F0812DE9F0410446002576
:103250001E469046C80301D5302700E02027880489
:1032600004D505E041463846B0476D1C641EF9D5CB
:103270002846BDE8F08100002DE9FE4F074688464C
:103280000026684601F0F4F9002444E057F82400D1
:1032900058F82410A0EB010ABAF1000F01DB5146E7
:1032A00001E0CAF100010846FDF7DEF983464FF060
:1032B0008F41FDF713F881465DF824000021FDF7EA
:1032C0003DFA18D05DF824104846FDF707F882460D
:1032D0004FF07E51FCF7CAFF054600BF25F00040C5
:1032E00082460F48416A5046FDF732FA12D2012059
:1032F000A04006430EE00A48C1694846FDF71EFAA1
:1033000005D30748016A4846FDF722FA02D2012098
:10331000A0400643641C032CB8DB3046BDE8FE8F9A
:10332000A47800082DE9F04D8D4F21F0004A86B0B9
:1033300005460C46BA452ADBAAEB070028430AD00B
:103340008848824501DC1AD1CDB106B02846BDE8D7
:10335000F04DFFF73CBD844A844B2846FDF7A3F8A7
:1033600007460E46824A834B28462146FDF79BF8C6
:1033700006B03A463346BDE8F04DFCF7EDBF0120FC
:10338000FFF748FD06B0BDE8F04DFFF725BD7A48D0
:10339000824542DABAF1795F0BDA2846FFF7AEFCD4
:1033A000042808BFFFF71EFD284606B02146BDE8E9
:1033B000F08D2A460B461046FDF775F88346024607
:1033C0006E480E460B4606217844FFF7ABFC5A4682
:1033D0003346FDF768F8804669488A465A463346C0
:1033E00004217844FFF79EFC5A463346FDF75BF80C
:1033F00000223B46FCF7B0FF02460B4640465146D2
:10340000FDF7C3F82A462346FDF74DF806B02A46D5
:103410002346BDE8F04DFCF79FBF284624F000414D
:1034200000223D463B46FDF73BF84FF0FF32FDF7EB
:103430007FFA0646024653480F460B46062178445B
:10344000FFF770FC32463B46FDF72DF8CDE9000151
:103450004D4832463B4604217844FFF763FC324630
:103460003B46FDF720F800222B46FCF775FF83460C
:1034700002913046394602F098FF804643480D4697
:10348000504517DCDDE900015A46029BFDF77DF847
:1034900042462B46FDF707F842462B46FCF75CFFF9
:1034A0000122FDF745FA304A304BFCF7F6FF304A6F
:1034B000304B4CE04FF0000A52460B464046FCF7BA
:1034C0004BFFCDE9031052462B4610461946FCF738
:1034D000EAFF32463B46FCF7E3FFDDE90332FDF746
:1034E00054F806460F46DDE900015A46029BFDF7F7
:1034F0004CF883460091012230463946FDF718FA10
:10350000194A1A4BFCF7CCFF06460F4601224046EB
:103510002946FDF70DFA5A46009BFCF7C4FF3246D8
:103520003B46FCF7BAFF06460F46012250462946A5
:10353000FDF7FEF90E4DDFF858802A464346FCF7AA
:10354000AFFF32463B46FCF7ABFF2A464346FCF74B
:10355000A7FF002CD8BF81F0004106B0BDE8F08D78
:103560000000F03F0000F07F075C143326A6913C7A
:10357000182D4454FB21F93F0000E03F04450000B2
:103580001A4500008E440000A44400003333EF3F8E
:10359000FB21E93F2DE9F84F04460D4621F000409C
:1035A00000917349814211DC7249884201DC06D1E5
:1035B0002CB120462946BDE8F84FFFF708BC6E48FD
:1035C000002DCCBF6D496E49BDE8F88F6D49814231
:1035D00011DD6D498142D8BF4FF0FF366DDD2046C9
:1035E0002946FFF78BFB042808BFFFF7FBFB2046AB
:1035F0002946BDE8F88F6549654F25F000458142B1
:1036000033DD6449814219DD002632464FF08043A4
:1036100020462946FCF7A0FE80468A460122204625
:103620002946FDF785F900223B46FCF736FF424666
:103630005346FCF7AAFF04460D463EE00126002251
:10364000BA463B4620462946FCF786FE80460F4692
:103650000022534620462946FCF71FFF42463B46C0
:10366000FCF793FF04460D4627E04B4981421BDDE2
:10367000DFF828A102260022534620462946FCF7FF
:1036800012FF00223B46FCF767FE80460F460022F1
:10369000534620462946FCF700FF42463B46FCF7CE
:1036A00074FF04460D4608E0032622462B46002000
:1036B0003B49FCF76AFF04460D4622462B4610465E
:1036C0001946FCF7F0FE8B46824602460B46FCF795
:1036D000EAFE07460246334888460B4606217844F0
:1036E000FFF720FB52465B46FCF7DDFE82462E4884
:1036F0008B463A46434605217844FFF713FB3A468A
:103700004346FCF7D0FE02460B46002E5046594673
:103710000CDAFCF721FE22462B46FCF7C4FE01B072
:1037200022462B46BDE8F04FFCF7BABEFCF714FE6C
:1037300022462B46FCF7B7FE1C4A7A4402EBC6032E
:10374000D3E90023FCF7A9FE22462B46FCF7A5FE91
:10375000174A7A4402EBC603D3E90023FCF7A0FE24
:10376000009A002AB8BF81F00041BDE8F88F000040
:10377000000010440000F07F182D4454FB21F93F55
:10378000FB21F9BF0000DC3F0000203E0000F33FBA
:103790000000F03F0000E63F008003400000F83FDB
:1037A0000000F0BFA6420000644200000242000098
:1037B000CA4100002DE9F04D9446CCF1000423F0FD
:1037C00000464CEA0404594F46EAD4749A468846A7
:1037D00021F00042BC4206D8454240EA050442EAD4
:1037E000D474BC4204D9BDE8F04D6246FFF7F2BA8A
:1037F000AAF14055A5F17F6555EA0C040BD00224CF
:1038000004EAAA744A4DDFF82CE144EAD87452EA7B
:10381000000B04D00CE0BDE8F04DFFF7BBBE002C60
:1038200014BF012CBDE8F08D022C30D0032C32D017
:1038300056EA0C0B0AD0BE4220D1BA4209D126F07A
:10384000804622F080423346114617E000291ADBF9
:1038500025E0DFF8E4B0FB44002C04BFDBE9000105
:10386000BDE8F08D012C02BFDBE9000181F00041D1
:10387000BDE8F08D022C0AD0032C0CD0BA4212D134
:10388000B8F1000F0BDA2A482C49BDE8F08D284624
:103890002B49BDE8F08D28467146BDE8F08D2448DF
:1038A0002849BDE8F08D921B12153C2AC4BF204F59
:1038B000244E10DCBAF1000FBEBF12F13C0F0027FE
:1038C0003E4608DB6246FCF760FE21F00041FFF750
:1038D00061FE07460E4694B1012C08BF86F00046F3
:1038E0000DD0194A194B022C3846314615D0FCF739
:1038F000D4FD2A46BDE8F04D114BFCF7CEBD0022A9
:10390000134638463146FDF72BF804BF0220FFF777
:1039100081FA38463146BDE8F08DFCF7BEFD2A46F7
:10392000BDE8F04D064BFCF7BBBD00000000F07F8A
:10393000182D4454FB2109C05E410000FB21F9BF52
:10394000FB210940FB21F93F075C143326A6A13C6B
:103950002DE9F0410446E07800F0C006E07800F080
:103960003F05607800F0010098B1EF102846E91794
:1039700005EB5171C910A5EBC101491C01F0FF080D
:103980000B48006820B10A48414602683846904713
:1039900000BF607800F0080030B10548406818B1F9
:1039A000B011034A516888470020BDE8F08100004B
:1039B000C802002010B56FF00400FEF7E5FB0A48CE
:1039C00000680A49B0FBF1F0094908700846007820
:1039D00000EB4001C1EBC0104FF6FF7101EAC000DF
:1039E0000449088010BD00000000002000127A0089
:1039F00046020020480200200146114A12884A432C
:103A00004FF0E0235A6100229A611A46126942F08F
:103A100001021A6100BF4FF0E022106900F00102BC
:103A20001AB100F48032002AF5D04FF0E02212697A
:103A300022F001024FF0E0231A6100229A617047E0
:103A4000480200200146114A12784A434FF0E02311
:103A50005A6100229A611A46126942F001021A6103
:103A600000BF4FF0E022106900F001021AB100F42B
:103A70008032002AF5D04FF0E022126922F00102D4
:103A80004FF0E0231A6100229A617047460200203D
:103A900010B501F0DFF910BD38B5044664B120203F
:103AA0008DF8000028208DF8010030208DF80200EC
:103AB00038208DF8030004E0A32204216846FCF7B7
:103AC00064FB6A46042140F69E2002F0D5FA01F01C
:103AD000BFFE38BD3EB5044602208DF80000CA2066
:103AE0008DF80100E3208DF8020009208DF8030015
:103AF0006A460421682002F0BFFAA3208DF8000076
:103B000004F0400048B1C0208DF80100C8208DF8B5
:103B10000200C2208DF8030006E0A3208DF801000A
:103B20008DF802008DF8030004F4C07048B1C42081
:103B30008DF80400CC208DF80500C6208DF8060015
:103B400006E0A3208DF804008DF805008DF806002E
:103B5000A3208DF807008DF808008DF809006A464B
:103B60000A2140F6A72002F087FA04F0030018B1FA
:103B700020208DF8000002E0D8208DF800006A4671
:103B8000012140F6B62002F077FA04F0200018B1C7
:103B9000012000F0ADF802E0002000F0A9F804F4E4
:103BA000C07008B304F4807060B1B2208DF80000DA
:103BB0008B208DF80100B6208DF802009B208DF837
:103BC00003000BE0B0208DF8000080208DF801008C
:103BD000B4208DF8020090208DF803006A4604217D
:103BE00040F6A22002F048FA04F0010020B3F820C9
:103BF0008DF800006A4601214FF40B6002F03CFA98
:103C0000FA21072000F02CFC072000F0F3FB012034
:103C100000F013FC642000F0F3FC4FF4FA7000F0A5
:103C200002FDC821304800F0A3FB282000F0BCFBB7
:103C30000A2000F0CCFB08E0D8208DF800006A468E
:103C400001214FF40B6002F017FA04F0020018B1E2
:103C5000D9208DF8000002E0D8208DF800006A46D7
:103C6000012140F23D7002F007FA04F0040018B19F
:103C7000012000F069F802E0002000F065F804F08F
:103C8000100018B10120FFF707FF02E00020FFF746
:103C900003FF44F008001549488101F0D9FD0020D8
:103CA0001249887304F0400018B10846807B801DDB
:103CB000887304F4C07020B10C48807B801D0B49D0
:103CC000887304F0140020B10848807B1030074945
:103CD000887304F0030020B10448807B001D034971
:103CE000887300203EBD000009E3CA02C80200201C
:103CF0003EB504466CB10EA1D1E900208968CDE93A
:103D0000002002916A4609214FF4976002F0B4F94D
:103D10003EBD0AA2D2E900109268CDE901020091ED
:103D20006A4609214FF4976002F0A6F9F0E7000017
:103D3000B8AAB38DB4980D355D000000B8AAAAAA40
:103D4000B088C3C5C700000038B5044664B1C020C0
:103D50008DF80000C2208DF80100C4208DF802000B
:103D6000C6208DF8030004E08B2204216846FCF78E
:103D70000CFA6A46042140F6982002F07DF901F021
:103D800067FD38BD10B5C8234FF48062024940F684
:103D9000F63001F0F1FB10BD846C00082DE9F04F06
:103DA0008DB00746884615469946DDE9166B002416
:103DB000002030806B49887B5A4605A901F0A8FC99
:103DC00018B1601E0DB0BDE8F08F6648807A00F033
:103DD0001400002867D09DF8140000069DF8151007
:103DE00040EA01409DF8161040EA01209DF81710A6
:103DF000084328609DF8180000069DF8191040EA55
:103E000001409DF81A1040EA01209DF81B1008435C
:103E100068609DF81C0000069DF81D1040EA0140F6
:103E20009DF81E1040EA01209DF81F100843A8606D
:103E30009DF8200000069DF8211040EA01409DF801
:103E4000221040EA01209DF823100843E86004F1A5
:103E50001000C4B228680014019068680014029031
:103E6000A86800140390E868001404900198404387
:103E7000029901FB0100039901FB0100049901FB78
:103E8000010ABAF1706F02DBBAF1885F05DD01F05B
:103E9000DFFC00203080401E94E7B6F9000040F4BB
:103EA0008070308000BF2F48807A00F0400020B33F
:103EB00005A9601C085C095D40EA012000B2A8F871
:103EC000000005A9E01C095C05AAA01C105C41EAE1
:103ED000002000B2A8F8020005A9601D095C201DA1
:103EE000105C41EA002000B2A8F80400A01DC4B292
:103EF000B6F9000040F0080030801A48408900F40C
:103F0000C07008B305A9601C085C095D40EA012087
:103F100000B2388005A9E01C095C05AAA01C105C51
:103F200041EA002000B2788005A9601D095C201DCF
:103F3000105C41EA002000B2B880A01DC4B2B6F9FE
:103F4000000040F0700030800648807A00F00300E6
:103F500018B105A90819FFF7FBFC484600F078FFE7
:103F600000202FE7C802002070B588B0064601A8DF
:103F700001F056F9BDF804000021C90341EA50459B
:103F8000C4034448007A00F0030056F8200005906E
:103F90004048007A00F0040010B1059840420590B6
:103FA0003C48007AC0F3C10056F82000069039481A
:103FB000007A00F0200010B1069840420690354883
:103FC000007AC0F3811056F820000790314800892C
:103FD00000F4807010B10798404207900598C1170F
:103FE000A0FB042301FB043100FB0510810041EA22
:103FF000927005900698C117A0FB042301FB0431C1
:1040000000FB0510810041EA927006900798C117E5
:10401000A0FB042301FB043100FB0510810041EAF1
:10402000927007900598000E8DF808000598000C16
:104030008DF809000598000A8DF80A000598C0B2AD
:104040008DF80B000698000E8DF80C000698000CF9
:104050008DF80D000698000A8DF80E000698C0B283
:104060008DF80F000798000E8DF810000798000CCF
:104070008DF811000798000A8DF812000798C0B259
:104080008DF8130002AA0C214FF4257001F0F4FF03
:1040900008B070BDC802002030B585B0044616A235
:1040A00007CA02AB07C3C82C03DD4FF0FF3005B0D1
:1040B00030BDC82090FBF4F0401E85B2280A8DF870
:1040C0000000E8B28DF801006A46022140F2162095
:1040D00001F0D2FF10B14FF0FF30E8E702AA0C2147
:1040E00040F6C12001F0C8FF10B14FF0FF30DEE70D
:1040F000044884810020DAE7FEF2ABC4AAF1DFDFD6
:10410000BBAFDFDFC80200201FB504464848007A75
:1041100000F0030054F8200001904548007A00F0B8
:10412000040010B10198404201904148007AC0F368
:10413000C10054F8200002903D48007A00F02000B1
:1041400010B10298404202903948007AC0F38110C1
:1041500054F8200003903648008900F4807010B1B4
:104160000398404203903349019880FB0101800F7E
:1041700040EA810001902F49029880FB01108200E3
:1041800042EA917002902B49039880FB0110820053
:1041900042EA917003900198000E8DF8000001989A
:1041A000000C8DF801000198000A8DF802000198BA
:1041B000C0B28DF803006A4604214FF4747001F018
:1041C0005BFF18B14FF0FF3004B010BD0298000E35
:1041D0008DF800000298000C8DF801000298000A8A
:1041E0008DF802000298C0B28DF803006A460421DF
:1041F0004FF4757001F040FF10B14FF0FF30E3E76E
:104200000398000E8DF800000398000C8DF8010053
:104210000398000A8DF802000398C0B28DF80300DD
:104220006A4604214FF4767001F026FFCCE70000C7
:10423000C802002009E3CA0210B586B0044647A0B0
:104240000068039046A00068029046A000680190B4
:1042500045A00068009004F0030003A9085C8DF8F5
:10426000140003A8C4F3C101405C8DF8150003A835
:10427000C4F38111405C8DF8160004F0030002A91C
:10428000085C8DF8100002A8C4F3C101405C8DF8F1
:10429000110002A8C4F38111405C8DF8120005AA38
:1042A000032140F2264001F0E7FE18B14FF0FF3045
:1042B00006B010BD04AA032140F22A4001F0DCFE42
:1042C00010B14FF0FF30F3E701980590009804908B
:1042D00004F0040058B19DF8140040F001008DF87E
:1042E00014009DF8100040F001008DF8100004F05B
:1042F000200058B19DF8150040F001008DF8150020
:104300009DF8110040F001008DF8110004F4807058
:1043100058B19DF8160040F001008DF816009DF888
:10432000120040F001008DF8120005AA03214FF49D
:10433000886001F0A1FE10B14FF0FF30B8E704AA89
:10434000032140F2314001F097FE10B14FF0FF30F1
:10435000AEE7064804810020AAE700004CCD6C00BF
:104360000CC92C003656760026466600C80200208E
:10437000F8B505460E464FF47A7095FBF0F000FB59
:1043800006F4200E8DF80000200C8DF80100200AA4
:104390008DF80200E0B28DF803006A4604214FF464
:1043A000AE7001F069FEF8BD38B50446052094FBF7
:1043B000F0F084B220128DF80000E0B28DF8010018
:1043C0006A4602214FF4AD7001F056FE38BD38B593
:1043D0000446052094FBF0F084B220128DF8000012
:1043E000E0B28DF801006A4602214FF4AC7001F092
:1043F00043FE38BD38B504460020009004F00100AB
:1044000020B19DF8000040F03000009004F0020060
:1044100020B19DF8000040F00C00009004F0040072
:1044200020B19DF8000040F0030000906A46012191
:104430004FF4A47001F020FE38BD38B50446012CBD
:1044400001DA012402E0042C00DD0424601EC0B265
:1044500000906A46012140F24F1001F00DFE38BD78
:104460002DE9FC4706460F4606F0070010B1B7F5E8
:10447000C86F03DD4FF0FF30BDE8FC873846FCF71E
:10448000FCF881465949FBF729FF8046684600F051
:10449000A1FE9DF80000022806D0042816D00828A6
:1044A00026D0102848D135E04FF08D414046FBF72B
:1044B000E3FE8146FCF7FFF884B24D494046FBF726
:1044C000DBFE8146FCF7F7F885B238E04FF08C410F
:1044D0004046FBF7D1FE8146FCF7EDF884B2454932
:1044E0004046FBF7C9FE8146FCF7E5F885B226E0B9
:1044F0004FF08B414046FBF7BFFE8146FCF7DBF8EF
:1045000084B23D494046FBF7B7FE8146FCF7D3F83D
:1045100085B214E04FF08A414046FBF7ADFE81467C
:10452000FCF7C9F884B235494046FBF7A5FE814641
:10453000FCF7C1F885B202E04FF0FF309CE700BF06
:1045400020128DF80400E0B28DF8050028128DF8D5
:104550000600E8B28DF8070006F00100A0B101AA3C
:1045600002214FF4EA7001F087FD10B14FF0FF30E7
:1045700082E70DF1060202214FF4927001F07CFDFA
:1045800010B14FF0FF3077E706F00200A0B101AAAA
:1045900002214FF4EC7001F06FFD10B14FF0FF30CD
:1045A0006AE70DF1060202214FF4947001F064FDF8
:1045B00010B14FF0FF305FE706F00400A0B101AA90
:1045C00002214FF4EE7001F057FD10B14FF0FF30B3
:1045D00052E70DF1060202214FF4967001F04CFDF6
:1045E00010B14FF0FF3047E7002045E70000484397
:1045F000000040460000C045000040450000C044A7
:1046000038B50446052094FBF0F085B228128DF8E9
:104610000000E8B28DF801006A4602214FF4EF7005
:1046200001F02AFD38BD38B50446052094FBF0F0B2
:1046300085B228128DF80000E8B28DF801006A46B4
:1046400002214FF4ED7001F017FD38BD70B504463E
:104650000D46E1B20548FEF763FA00BF402103486A
:10466000FEF795F90028F9D0204670BD00380140CA
:104670007CB5054628494968087801AB04220D211C
:10468000FDF730F808B107207CBD9DF80700C0F3A6
:1046900001109DF8041001F0E00140EAE1008DF8FE
:1046A00000009DF80700C0F381009DF8051001F09F
:1046B000E00140EAE1008DF801009DF8070000F0FC
:1046C00003009DF8061001F0E00140EAE1008DF8DA
:1046D000020000241CE01DF8040018B9002045F871
:1046E000240013E00D4845F8240006E055F82400A6
:1046F0000B49FBF7C1FD45F824001DF80400401EDE
:10470000C0B20DF804000028F0D100BF601CC4B294
:10471000032CE0DB0020B7E7100200207B14AE3E44
:104720001D5A843F2DE9F04F87B005460C4691464F
:1047300001208DF8100000208DF81100FE4A12684B
:10474000917CFD4A5268107804AB0222FDF770F8A4
:1047500020B14FF0FF3007B0BDE8F08FC820FFF761
:104760004BF900208DF81000F34A1268D17BF24A11
:104770005268107804AB0122FDF75AF810B14FF0DF
:10478000FF30E8E7EC4A12685179EB4A526810783A
:1047900004AB0122FDF74CF810B14FF0FF30DAE71F
:1047A000E54A1268917CE44A5268107804AB012211
:1047B000FDF73EF810B14FF0FF30CCE7DE4A12684B
:1047C000D17DDD4A5268107804AB0122FDF730F844
:1047D00010B14FF0FF30BEE7D74A12681179D64AC0
:1047E0005268107804AB0122FDF722F810B14FF0A7
:1047F000FF30B0E70C208DF81000CF4A1268117915
:10480000CD4A5268107804AB0122FDF711F810B1BF
:104810004FF0FF309FE70F20FFF7EEF8C648806AA1
:10482000407A8DF81000C44A12689178C24A5268E2
:10483000107804AB0122FCF7FBFF10B14FF0FF3002
:1048400089E7BD48806A007A8DF81000BA4A12687C
:104850005178B94A5268107804AB0122FCF7E8FF9E
:1048600010B14FF0FF3076E7B9F1000F07D0B24832
:10487000806A807A40F0E0008DF8100004E0AE48D5
:10488000806A807A8DF81000AB4A12689179AA4A42
:104890005268107804AB0122FCF7CAFF10B14FF048
:1048A000FF3058E7B9F1000F07D0A348806AC07AFB
:1048B00040F0E0008DF8100003E0A048C07A8DF8C9
:1048C00010009D4A1268D1799B4A5268107804AB57
:1048D0000122FCF7ADFF10B14FF0FF303BE7B9F11B
:1048E000000F02D0C820FFF787F840208DF8100095
:1048F000914A12681179904A5268107804AB0122EB
:10490000FCF796FF10B14FF0FF3024E778208DF8C8
:104910001000894A12685179874A5268107804ABAE
:104920000122FCF785FF10B14FF0FF3013E78349F8
:104930008889FFF761F800208DF810007E4A126820
:1049400051797D4A5268107804AB0122FCF770FF60
:1049500010B14FF0FF30FEE6774A1268917A764A3E
:104960005268107804AB0222FCF7BCFE10B14FF085
:10497000FF30F0E69DF811009DF8101040EA012B81
:104980000C209BFBF0F0C6B20020A8606860286095
:10499000A06060602060824665E0674A1268D17A54
:1049A000654A5268107804AB0C22FCF79BFE10B1EC
:1049B0004FF0FF30CFE69DF811009DF8101040EA4F
:1049C000012000B2ADF808009DF813009DF8121008
:1049D00040EA012000B2ADF80A009DF815009DF8EC
:1049E000141040EA012000B2ADF80C00BDF9081027
:1049F000206808442060BDF90A10606808446060BF
:104A0000BDF90C10A0680844A0609DF817009DF83F
:104A1000161040EA012000B2ADF800009DF8190020
:104A20009DF8181040EA012000B2ADF802009DF890
:104A30001B009DF81A1040EA012000B2ADF80400F6
:104A4000BDF90010286808442860BDF902106868A4
:104A500008446860BDF90410A8680844A8600AF119
:104A6000010000F0FF0AB24597DB3448D0F800C0DF
:104A70002868C117090441EA10410704624600236F
:104A80003846FBF751FB32460023CDE90201FBF724
:104A90004BFB28602948D0F800C06868C11709049A
:104AA00041EA10410704624600233846FBF73CFB0D
:104AB00032460023CDE90201FBF736FB68601F4850
:104AC000D0F800C0A868C117090441EA10410704E2
:104AD000624600233846FBF727FB32460023CDE928
:104AE0000201FBF721FBA8601448D0F804C020683D
:104AF000C117090441EA1041070462460023384601
:104B0000FBF712FB32460023CDE90201FBF70CFB59
:104B100020600A48D0F804C06068C117090441EA5F
:104B200010410704624600233846FBF7FDFA32467F
:104B30000023CDE9020103E010020020A478000860
:104B4000FBF7F2FA60601148D0F804C0A068C11702
:104B5000090441EA10410704624600233846FBF786
:104B6000E3FA32460023CDE90201FBF7DDFAA0604B
:104B7000A068002804DDA068A0F58030A06003E0F4
:104B8000A06800F58030A0600020E4E5A47800086B
:104B90002DE9FC5F0746884600263F4949680878AA
:104BA00001AB03220D21FCF79DFD10B10720BDE8EC
:104BB000FC9F9DF8040000F01F008DF804009DF894
:104BC000050000F01F008DF805009DF8060000F0BC
:104BD0001F008DF80600002459E057F8240058F80B
:104BE0002410A0EB010BBBF1000F01DB594601E0E3
:104BF000CBF100010846FBF737FD4FF08F410090E5
:104C0000FBF76CFB824601A8005D78B32349086876
:104C1000FBF733FD834659462148FBF75FFB81468E
:104C200004E020494846FBF727FB814601A8005DC8
:104C3000401EC0B201A908550028F2D1494650468D
:104C4000FBF74CFB83464FF07E51FBF70FFB05460D
:104C500000BF25F000408346104881695846FBF7A5
:104C600077FD13D20120A04006430FE0FFE70B4879
:104C700001695046FBF762FD05D30848416950467B
:104C8000FBF766FD02D20120A0400643641C032C02
:104C9000A3DB30468BE7000010020020A478000858
:104CA00000B04C4554E3853F10B50446204600F063
:104CB0000FF80346E01C00F00BF843EAC00083B293
:104CC000A01D00F005F843EA801083B2184610BD1D
:104CD000014691F90020002A01DD00201EE091F933
:104CE0000020002A01DA042018E091F90120002AAE
:104CF00001DD012012E091F90120002A01DA0520EE
:104D00000CE091F90220002A01DD022006E091F971
:104D10000220002A01DA062000E007207047000088
:104D200010B51048007807281AD2DFE800F0040A0E
:104D3000070D10131600FDF7A7F811E0FDF78FF827
:104D40000EE0FDF7C9F80BE0FDF7B8F808E0FDF755
:104D50006BF805E0FDF729F902E0FDF719F900BF4E
:104D600000BF10BDE4010020FEF724FE4FF4A06058
:104D7000FCF704FE4FF4E130FDF7D6FE4FF4E130CE
:104D8000FDF724FFFCF768FAFCF754FAFCF782FD04
:104D9000FDF79AF9FBF7E6FEFBF77CFF04E0FDF771
:104DA00011F9C820FEF728FEFCF742FC0028F6D1D6
:104DB0001420FEF721FE04E0FDF773F8C820FEF78B
:104DC0001BFE00F0BBF90028F6D1FCF731FE1023E2
:104DD00018A208210020FCF71DFF01F08DF9FCF757
:104DE000A5FA25E01548007820B100201349087085
:104DF000FEF74EFE1248007820B1002010490870DE
:104E000001F0FAFA0F48007820B100200D4908702F
:104E100001F0CAFA0C48007810B100200A49087065
:104E20000A48007820B1002008490870FFF778FF91
:104E3000D8E7000068656C6C6F210000D701002086
:104E4000D9010020D8010020DA010020DB01002078
:104E50007047000010B5104AD169104AD069FBF7BD
:104E600005FA0446FBF70EFC00B20D4908800A4A19
:104E7000D1690A4AD069FBF7A7F90446FBF702FC9F
:104E800000B2084908800846B0F900100448B0F99B
:104E9000000001F0DBF910BDA8020020680200202C
:104EA000F0010020F201002070B50446002624F035
:104EB0000104184890F8240008B1002070BD15487E
:104EC000807A10B94FF0FF30F8E71248057C807AFD
:104ED0002040104908740846007CA04202D04FF0E0
:104EE000FF3600E0002614B90A48007D18B1012001
:104EF00001F012FA02E0002001F00EFA3CB100F0DD
:104F0000A7FC20B1034805744FF0FF30D6E73046C8
:104F1000D4E70000100200202DE9F04F99B00446BC
:104F20000D4616464FF07E574FF000084FF000092F
:104F30004FF0000A12A813A918AB0EAACDE9001071
:104F400014A916A8FEF72AFF18B1012019B0BDE870
:104F5000F08FBDF84C0000F4807000287ED00E98D1
:104F6000FBF782FB83464FF09D41FBF7B7F90746FD
:104F70000F98FBF779FB83464FF09D41FBF7AEF9A5
:104F800080461098FBF770FB83464FF09D41FBF77E
:104F9000A5F981461198FBF767FB83464FF09D41C9
:104FA000FBF79CF9824639464FF08040FBF764F9E5
:104FB00049460590FBF760F9414607904FF04040A5
:104FC000FBF75AF951460590FBF756F906900799F9
:104FD000FBF7FAF88346FBF782FBCDE90801FEF701
:104FE000A1F94FF06632544BCDE90A01FBF75BFAA9
:104FF000CDE90C01FBF786FB206049464FF080406D
:10500000FBF73AF949460290FBF736F9414604901E
:105010004FF04040FBF730F941460290FBF72CF986
:1050200003900499FBF722F983464FF07E51FBF77A
:10503000CBF80590FBF753FBCDE9080139464FF05B
:105040008040FBF719F941460390FBF715F94946F3
:1050500004904FF08040FBF70FF900E068E0514604
:105060000390FBF709F983460499FBF7ADF8059027
:10507000FBF735FBCDE90601DDE90823FEF79AFBD6
:105080004FF066322C4BCDE90A01FBF70CFACDE963
:105090000C01FBF737FB286051465046FBF7ECF854
:1050A000494604904846FBF7E7F8414603904046DE
:1050B000FBF7E2F8394601903846FBF7DDF800903F
:1050C0000199FBF781F802900399FBF7CFF883462B
:1050D0000499FBF7CBF80590FBF701FBCDE908013C
:1050E00051463846FBF7C8F8494604904046FBF75E
:1050F000C3F803900499FBF767F84FF080410590DF
:10510000FBF7BAF88346FBF7EAFACDE90601DDE9D9
:105110000823FEF74FFB4FF06632074BCDE90A013B
:10512000FBF7C1F9CDE90C01FBF7ECFA306001E0C7
:1051300002200BE7002009E766A64C4070B500246A
:10514000FCF756F900F020F900283DD1782000F056
:105150002BFFC4B20CB1012070BD7820FFF7A4FE74
:10516000C4B20CB10220F7E7C82000F0CFFEC4B2F1
:105170000CB10320F0E7FEF705FEC4B20CB1042029
:10518000EAE71348FFF790FD0546FFF755F8C4B26C
:105190000CB10520E0E740F27310FEF79BFCC4B2AF
:1051A0000CB10620D8E7C820FEF776FFC4B20CB1D8
:1051B0000720D1E701F000F80446012000F0A2FD2D
:1051C000C4B21CB10920C7E70A20C5E70020C3E725
:1051D0003C02002001461148407A30B1012807D036
:1051E000022808D003280CD108E0022008700BE048
:1051F0000420087008E00820087005E010200870FE
:1052000002E04FF0FF30704700BF0448C07C18B187
:1052100008784006000E08700020F4E71002002015
:1052200001461348407A30B1012808D002280AD03C
:10523000032810D10BE04FF4804008800EE041F6C7
:105240009C7008800AE04FF48050088006E04FF41C
:105250000060088002E04FF0FF30704700BF044854
:10526000C07C10B10888401008800020F5E70000DD
:105270001002002001460248007C087000207047A0
:105280001002002001460F48007A30B1012807D0F3
:10529000022809D003280FD10AE0FA2008800EE086
:1052A0004FF4FA7008800AE04FF47A70088006E044
:1052B0004FF4FA60088002E00020088000BF00BFC1
:1052C000002070471002002001460E48007A30B1DD
:1052D000012807D0022808D003280CD108E00A488A
:1052E00008600BE00948086008E00948086005E02C
:1052F0000848086002E04FF0FF30704700BF002010
:10530000FBE700001002002000000343000083427E
:10531000333303423333834101461248C07A0828AD
:1053200017D2DFE800F01704070A0D101318BC208D
:10533000088013E06220088010E02A2008800DE039
:10534000142008800AE00A20088007E00520088071
:1053500004E000BF00BF0020088000BF00BF0020A5
:1053600070470000100200200146064890F8240013
:1053700010B14FF0FF3070470248C089088000200C
:10538000F9E70000100200201CB580208DF8000015
:10539000654A1268917C644A526810786B46012213
:1053A000FCF746FA10B14FF0FF301CBD6420FEF749
:1053B00023FB00208DF800005B4A1268917C5A4A5A
:1053C000526810786B460122FCF732FA10B14FF0A8
:1053D000FF30EAE7544A1268917D534A52681078C8
:1053E0006B460622FCF77EF910B14FF0FF30DCE788
:1053F0009DF80500C007400F9DF8031001F0010162
:1054000040EA41009DF8011001F0010140EA010469
:1054100094B1012C03D101214348C17431E0022C25
:1054200003D100214048C1742BE021463FA0FDF785
:1054300055FC4FF0FF30B8E73B4A1268D1783A4A42
:10544000526810786B460122FCF74CF910B14FF00E
:10545000FF30AAE79DF8000000F00F042CB93D488A
:10546000FDF73CFC4FF0FF309FE7042C06D13AA03B
:10547000FDF734FC01212C48C17402E000212A48C8
:10548000C174FF2128488172FF2027490872FF213B
:1054900025484172C1724FF6FF71C181FF2101742D
:1054A00081740121017380F82210002180F82310FB
:1054B000417501751630016041608160163880F8D1
:1054C000241080F82510C1844FF4FA6000F062FCCB
:1054D00010B14FF0FF3068E7022000F02BFB10B155
:1054E0004FF0FF3061E72A2000F0CEFC10B14FF002
:1054F000FF305AE7322000F009FD10B14FF0FF30C5
:1055000053E70020FFF7D0FC10B14FF0FF304CE71D
:10551000002000F051FB10B14FF0FF3045E70020B4
:1055200000F042FD002040E710020020556E737528
:1055300070706F7274656420736F667477617265E2
:105540002070726F64756374207265762025642EF6
:105550000A000000C079000848616C662073656E1F
:105560007369746976697479207061727420666FEA
:10557000756E642E0A0000002DE9F04385B00546E3
:105580000E4690469946294890F8250020B14FF0E4
:10559000FF3005B0BDE8F08316B94FF0FF30F8E7F3
:1055A000002423E0281B102801DD102000E0281B28
:1055B00087B232193946204600F05EFD10B14FF037
:1055C000FF30E6E701AA3946204600F001F910B1A4
:1055D0004FF0FF30DDE730193A4601A9FAF7E7FD51
:1055E00010B16FF00100D4E7E01984B2AC42D9DB0E
:1055F0004FEA28208DF8000008F0FF008DF8010028
:105600000A4A1268917E094A526810786B46022253
:10561000FCF70EF910B14FF0FF30BAE70121034853
:1056200080F82510A0F826900020B2E71002002094
:1056300038B50446282C02DD4FF0FF3038BDDCB908
:10564000002000F0EBFB00208DF8000007208DF813
:1056500001002E4A1268917C2C4A526810786B46E1
:105660000222FCF7E5F810B14FF0FF30E6E7002129
:10567000264801750020E1E7012000F0CFFB202043
:105680008DF80000012C06D100208DF801000520C6
:1056900000F0FAFB17E0052C06DC01208DF8010074
:1056A000052000F0F1FB0EE0142C06DC02208DF842
:1056B00001000A2000F0E8FB05E003208DF801005E
:1056C000142000F0E1FB9DF80100072101EB8010A0
:1056D000C0B28DF801000D4A1268917C0B4A5268E5
:1056E00010786B460222FCF7A3F810B14FF0FF30A0
:1056F000A4E7082105488172002101730121017589
:105700000020FFF7D1FB002098E7000010020020E6
:10571000F8B504460F4616462C4890F8240010B9F8
:105720004FF0FF30F8BD2948807A10B94FF0FF30B4
:10573000F8E7264A1268917A244A526810786B4634
:105740000222FBF7CFFF10B14FF0FF30EAE79DF8E0
:1057500001009DF8001040EA0125A54203DA00206F
:105760003070401EDEE7194840684088B5EB600F96
:1057700017DD164A1268517C144A526810786B463D
:105780000122FBF7AFFF10B14FF0FF30CAE79DF8E1
:10579000000000F0100020B100F05AF86FF0010096
:1057A000C0E7E2B2094B1B68D97A084B5B681878EE
:1057B0003B46FBF797FF10B14FF0FF30B2E795FB88
:1057C000F4F0401E30700020ACE700001002002012
:1057D000F8B504460D46164616B94FF0FF30F8BD31
:1057E0001A48807A10B94FF0FF30F8E720128DF890
:1057F0000000E0B28DF801009DF801002844134933
:1058000049684989884202DD4FF0FF30E7E70F4AD7
:105810001268117E0D4A526810786B460222FCF71E
:1058200007F810B14FF0FF30D9E7EAB2074B1B6819
:10583000597D064B5B6818783346FBF753FF10B170
:105840004FF0FF30CBE70020C9E700001002002036
:1058500008B57048807A10B94FF0FF3008BD0020BD
:1058600000906C4A1268D17B6A4A526810786B4685
:105870000122FBF7DDFF10B14FF0FF30EEE7654A84
:1058800012685179634A526810786B460122FBF71F
:10589000CFFF10B14FF0FF30E0E75E4A1268117998
:1058A0005C4A526810786B460122FBF7C1FF10B1C9
:1058B0004FF0FF30D2E7574890F82400002853D02B
:1058C0000C200090534A12681179524A526810789D
:1058D0006B460122FBF7ACFF10B14FF0FF30BDE784
:1058E0003220FEF789F8C02000904A48807A00F004
:1058F000010020B19DF8000040F020000090454AD2
:1059000012681179434A526810786B460122FBF7FE
:105910008FFF10B14FF0FF30A0E73E48407C10B140
:105920000220009001E0002000903A4A1268D17BEA
:10593000384A526810786B460122FBF779FF10B1A4
:105940004FF0FF308AE700200090324A1268517908
:10595000304A526810786B460122FBF769FF002835
:1059600055D04FF0FF3079E704200090294A1268A3
:105970001179284A526810786B460122FBF758FFCC
:1059800010B14FF0FF3069E72248807C20B92148F0
:10599000807A00F0010010B94020009001E0602002
:1059A00000901C4A126811791A4A526810786B46A6
:1059B0000122FBF73DFF10B14FF0FF304EE73220E0
:1059C000FEF71AF81348407C10B10120009001E066
:1059D000002000900F4A1268D17B0E4A526810785E
:1059E0006B460122FBF724FF10B14FF0FF3035E783
:1059F000084A12685179074A52681078054B1033EB
:105A00000122FBF715FF10B14FF0FF3026E7002011
:105A100024E70000100200202DE9F04F8DB08346EE
:105A20000F4602200C90424890F8240020B100203C
:105A300000F068F9012600E0002603A8FFF722FC29
:105A400005A8FFF7C7FB01A8FFF766FC02A8FFF750
:105A50008BFC374890F80AA004A8FFF70BFC002441
:105A600007E0002239465846FEF75CFE00B902E026
:105A7000641C022CF5DB00BF022C01D1002528E0BC
:105A8000002407E0012206A909A8FEF74BFE00B991
:105A900002E0641C022CF5DB00BF022C01D10025C2
:105AA00017E006A93846FDF7E7FB00F0FF0809A953
:105AB0005846FFF76DF800F0FF090025B9F1000F17
:105AC00001D145F00105B8F1000F01D145F0020503
:105AD00000BFFF2016490872FF2115484172C172AC
